:020000040800F2
:1000000008120020890100087D4200080133000821
:1000100079420008B102000895480008000000007D
:10002000000000000000000000000000054400087F
:10003000D902000800000000814200085D44000869
:10004000A3010008A3010008A3010008A301000800
:10005000A3010008A3010008A3010008DD020008B5
:10006000A3010008A3010008A3010008B5020008CD
:10007000A3010008A3010008A3010008C1020008B1
:10008000CD020008A3010008A3010008A301000895
:10009000A3010008A3010008A3010008A3010008B0
:1000A000A3010008A3010008A3010008A3010008A0
:1000B0006544000871440008A301000805330008E6
:1000C000A3010008A3010008A3010008A301000880
:1000D000A30100087D48000889480008A301000822
:1000E000A3010008A3010008A301000800F002F822
:1000F00000F03AF80AA090E8000C82448344AAF188
:100100000107DA4501D100F02FF8AFF2090EBAE885
:100110000F0013F0010F18BFFB1A43F0010318473B
:10012000FC9B00001C9C0000103A24BF78C878C1DA
:10013000FAD8520724BF30C830C144BF04680C60ED
:10014000704700000023002400250026103A28BF35
:1001500078C1FBD8520728BF30C148BF0B60704739
:100160001FB51FBD10B510BD00F06CF81146FFF7AC
:10017000F7FF04F091FB00F08AF803B4FFF7F2FFF9
:1001800003BC00F08DF8000009488047094800478B
:10019000FEE7FEE7FEE7FEE7FEE7FEE7FEE7FEE737
:1001A000FEE7FEE704480549054A064B7047000094
:1001B00061440008ED000008080C0020081200202F
:1001C000080E0020080E00204FF0000200B5134674
:1001D00094469646203922BFA0E80C50A0E80C5067
:1001E000B1F12001BFF4F7AF090728BFA0E80C5018
:1001F00048BF0CC05DF804EB890028BF40F8042B11
:1002000008BF704748BF20F8022B11F0804F18BF7D
:1002100000F8012B704770477047704710B500F029
:1002200009F8006810BD10B5044600F003F804603A
:1002300010BD0000004870473000002000487047A3
:10024000300000207546FFF7F9FFAE46050069460D
:10025000534620F00700854618B020B5FFF7A2FFEF
:10026000BDE820404FF000064FF000074FF00008B7
:100270004FF0000BAC46ACE8C009ACE8C009ACE8F4
:10028000C009ACE8C00921F007018D46704710B5E0
:100290000446AFF300802046BDE81040FFF76DBF75
:1002A00001491820ABBEFEE726000200704700009F
:1002B000FEE7000040F2C410C2F2000000F060BA95
:1002C00040F20820C2F2000000F05ABA40F24C207E
:1002D000C2F2000000F054BA70470000022000F0A3
:1002E000CDBB0000EFF3108072B600BFFEE7000048
:1002F00010B581B00022009290F82420012A03D189
:100300000221084601B010BD4B680122062B80F87F
:10031000242017D8D0F800C003EB83035A1F1F23F3
:10032000DCF834E003FA02F40B682EEA040403FA62
:1003300002F22243CCF83420092B03EB430219D9F3
:1003400036E000BFD0F800C00C2B03EB83021DD8B1
:10035000233A1F23DCF830E003FA02F40B682EEA9C
:10036000040403FA02F22243CCF83020092B03EBF9
:1003700043021DD8DCF81030072489689440A34359
:1003800091401943CCF81010002130E0413A1F236E
:10039000DCF82CE003FA02F40B682EEA040403FAFA
:1003A00002F22243CCF82C20092B03EB4302E1D9C3
:1003B000DCF80CE01E3A0724896894402EEA040415
:1003C000914023F001022143102ACCF80C100DD1EA
:1003D00042F20841C4F20101A1F1080294450DD096
:1003E000816A41F020018162012100E000210022A8
:1003F00080F82420084601B010BD00BF0A68120230
:1004000030D40A68102B42F400020A602CD140F26A
:100410002C01C2F2000109684DF68362C4F21B325E
:10042000A1FB0212910C01EB81014900009100999E
:10043000E1B10099013900910099C9B100990139E0
:1004400000910099B1B1009901390091009999B1D9
:10045000009901390091009900294FF00001E8D17D
:10046000C5E700BF0021C2E70021C0E70021BEE7C9
:100470000021BCE70021BAE70021B8E7B0B50028A9
:1004800000F0A8800446806A20B121688868C0070F
:100490000BD114E00020E06284F82400204600F034
:1004A0009BF821688868C00709D0886820F001009F
:1004B000886000F011FC21688A68D20726D1A06A02
:1004C000C0063AD4A06A41F2021290430230A06200
:1004D000E069D4E9013240EA030C531EB3FA83F316
:1004E0005D091346B2F5807F18BF2B02207D257B66
:1004F00001284CEA450030D135B3A56A45F0200506
:10050000A562E56A45F00105E56226E0054602E0E0
:100510008868C007D3D000F0DFFB401B21680328A8
:10052000F6D38868C007F3D0A06A40F01000A0623C
:10053000E06A40F00100E062A06AA06A40F01000AA
:10054000A0620120B0BD00BFD4F818C04EF600056F
:10055000CFF6FF7505EB4C352B434D68B2F5807F28
:1005600025F4694543EA05034B608B684FF2FD753E
:10057000CFF6E17503EA050343EA00038B6001D07F
:10058000012A07D122690023CFF6F07303EB025250
:1005900001E000BF0022CB6A23F470031A43CA6251
:1005A000896840F6FE62CFF61F721140814207D182
:1005B0000020E062A16A012262F30101A162B0BDE4
:1005C000A06A40F0100020F00200A062E06A40F053
:1005D0000100E0620120B0BD70B586B0044640F66F
:1005E0000000C4F20100216800F5E05200269142AB
:1005F0000596049602D006B070BD00BF41F2180106
:10060000C4F202010A6842F400720A600A6802F445
:1006100000720192019A0A6842F004020A600968B5
:1006200001F004010191019901210291032103913B
:1006300002A900F02FFA40F2C4150820C2F200050A
:10064000C4F202004FF48072C5E9000605F1100003
:1006500080214FF480634FF0200C80E80C10284676
:10066000C5E90261EE6100F05BF9002818BFFFF7F1
:1006700039FE25626C6206B070BD0000014690F83C
:100680002100022816D10868D1E90FC3026822F0C0
:100690000E020260026822F001020260012000FAEC
:1006A00003F2CCF8042081F821000020002281F818
:1006B00020207047042088630120002281F8202038
:1006C0007047000080B590F82110022924D10268FB
:1006D000116821F00E0111602F211368C4F202018C
:1006E0008A4240F20401C4F2020123F001031360C4
:1006F00016DD3023C4F202039A421DD04423C4F213
:1007000002039A421CD05823C4F202039A421DD11C
:100710004FF4803322E000BF04218163012080BDBB
:100720000823C4F202039A420ED01C23C4F202032F
:100730009A420BD1102311E04FF480730EE000BFFA
:100740004FF480530AE000BF012307E001F1680C79
:100750004FF08073624508BF4FF480130B60012196
:1007600080F82110426B002180F820100AB19047D8
:100770000021084680BD000090F82100704700006D
:1007800010B5D0E90FCE0168DCF800300A6823FA12
:100790000EF35C072AD512F0040427D00A689206EB
:1007A00003D40A6822F004020A602F22C4F2020273
:1007B000914240F20402C4F202025BDD3023C4F233
:1007C0000203994272D04423C4F20203994273D0C7
:1007D0005823C4F20203994240F07A804FF48023F8
:1007E0001360C16A002940F098806FE09C0727D50C
:1007F00012F0020424D00A68920606D40A6822F095
:100800000A020A60012280F821202F22C4F202028B
:10081000914240F20402C4F202023BDD3023C4F2F2
:100820000203994260D04423C4F2020399425FD08C
:100830005823C4F20203994260D14FF4003365E0BB
:100840001B0743D512F0080208BF10BD0A6822F04A
:100850000E020A60012101FA0EF2CCF80420816335
:1008600080F82110016B0022002980F8202054D14B
:100870002CE000BF0823C4F20203994222D01C23BB
:10088000C4F20203994223D140231360C16A0029B4
:1008900043D11BE00823C4F2020399422CD01C234D
:1008A000C4F20203994229D120232FE04FF4806340
:1008B0001360C16A89BB09E04FF480431360C16AC9
:1008C00059BB03E004231360C16A31BB10BD00BFF4
:1008D00002F168044FF08063A14208BF4FF4800327
:1008E0001360C16AC9B9F1E74FF400730EE000BFAD
:1008F0004FF400530AE000BF022307E002F168044E
:100900004FF00073A14208BF4FF400131360816AD7
:100910000022002980F82020D8D0BDE810400847E8
:10092000014600284FF0010008BF70472DE9F04351
:10093000D1F800C04FF6F873CBF6FD734CF6CD42FC
:100940006344CCF6CC42A3FB02236FF0030707EA13
:1009500093030027C4F2020701F10C09C1E90F73E8
:100960000223D1E9012E99E87002D1F81C8081F8A8
:100970002130DCF8003043F6F077BB431A4342EAFB
:100980000E0222432A43324342EA090242EA0802A3
:10099000CCF8002000228A6381F8210081F8202011
:1009A0000020BDE8F0437047F0B590F820C0BCF1DE
:1009B000010F32D04FF0010E80F820E090F821C0F6
:1009C000BCF1010F26D14FF0020C80F821C04FF08E
:1009D000000CC0F838C0D0E900C4C56AC66BDCF8AA
:1009E0000070102C27F00107CCF80070006C0EFA94
:1009F00000F070600846CCF8043004BF10460A4688
:100A0000CCF80800CCF80C20DCF8000045B140F030
:100A10000E000DE0002180F820100220F0BD00BF84
:100A200020F00400CCF80000DCF8000040F00A00E0
:100A3000CCF80000DCF8000040F00100CCF8000029
:100A40000020F0BDB0B5044600F046F9054640F27E
:100A50002400C2F200000078611C18BF044400BFEB
:100A600000F03AF9401BA042FAD3B0BD40F290002A
:100A7000C2F200000121C1607047000040F2144141
:100A8000C4F201010A68024214BF08607047FFF710
:100A9000EDBF00002DE9F04F82B00E68002E00F08F
:100AA000038141F20042C4F20102042340F2004EED
:100AB000904208BF03234FF6FF7CC4F2010E00935F
:100AC00000240123C1F2100C4FF0000A4FF000097E
:100AD00049E000BF012704F00C030F229A402BEAE3
:100AE000020207FA03F34FEA9A051A4346F8252053
:100AF000D1F804B040F20C455FEACB22DEF80820C2
:100B000054BF22EA080242EA0802C4F20105CEF804
:100B100008202A685FEA8B2354BF22EA080242EACF
:100B200008022A605FEA8B33DEF8042054BF22EA11
:100B3000080242EA08025FEACB33CEF80420DEF86E
:100B400000204FF0010354BF22EA080242EA0802E3
:100B5000CEF800200E680AF1010A36FA0AF204F112
:100B6000040400F0A18003FA0AF816EA080FF1D095
:100B70004E68664512DC122E56D8DFE806F0350BBB
:100B80004549555555555555555555555555554D39
:100B9000510000BFD1F80C9046E000BF4FF6FF7245
:100BA000C1F2210296420FDC0022C1F211029642EC
:100BB0001AD00022C1F21202964215D00022C1F2D0
:100BC0002102964210D02FE00022C1F2220296426A
:100BD0000AD00022C1F23102964205D00022C1F2B1
:100BE0003202964220D100BF8A684AB1012A14BF5E
:100BF000C0F81480C0F810804FF0080914E000BF5E
:100C00004FF0040910E000BFCA6802F108090BE0C8
:100C10004FF0000908E000BFCA6802F1040903E0D0
:100C2000CA6802F10C0900BF22460646BAF1080F55
:100C300024BF203A043637680F25954027EA05057A
:100C400009FA02F22A433260CA79D2067FF582AFEE
:100C500041F21803C4F202031A68AEF57E7642F040
:100C600001021A601A6802F001020192019A2AF048
:100C7000030256F802B040F60002C4F201029042AC
:100C800010D040F60042C4F2010290423FF422AF7D
:100C900041F20002C4F20102009F904208BF022705
:100CA00019E700BF002716E702B0BDE8F08F00008B
:100CB0008068084018BF012070470000C26802EA3F
:100CC0000103914341EA034101617047002A08BFD3
:100CD000090401617047000040F60440C2F20000C0
:100CE000006870477047000070470000F0B581B0A1
:100CF000076804467868E26A94F83E3094F83DE06C
:100D0000402B01D0102B27D1BE697D69E90751D155
:100D1000B2F12A4F00F0BE82B2F52A0F00F0BA827B
:100D200000F400724FF0010C29078CEA522C45D5D3
:100D3000002A43D0606B616CC9B2396118B1806A16
:100D4000002840F02481A06B002800F0A382806A74
:100D5000002840F01C819DE2216C00F40073002902
:100D60000CBFBE6900267D69A90753D5002B51D061
:100D7000206C002818BFBE6994F83D0000F02800E0
:100D8000282840F093807868002320F48060786001
:100D9000012020EA960130064FF0180058BF0C20C1
:100DA000225A204684F83C3001B0BDE8F040FFF7FD
:100DB0009BBF00BF810557D44FF0010CA90759D53F
:100DC000BCF1000F56D194F83E30E06A226B94F8E3
:100DD0003D10222940F0E280216D002908BF402B00
:100DE00000F0DC80216D002940F032812169B1F5ED
:100DF000404F40F02D810020009078690090B86944
:100E000000900098386840F480703860206D0130A0
:100E100093E200BFE90655D5002B53D094F83D501E
:100E2000786820F4E0607860002000907869009095
:100E3000386840F0010038600098386820F480601D
:100E400038607868000540F1408105F0F7002646DB
:100E5000222840F0198156F8380F0168496826F8B1
:100E60000E1C36F80E1C17E1E06AB0F52A0F5FD1B0
:100E7000012062E07968720701F4006100F1988056
:100E8000002940F00782690605F0040140F1AE81B7
:100E900010F4806000F0AA81002940F0A78120466C
:100EA00001B0BDE8F04002F0FFBB00BF00200090A1
:100EB00079690091B9690091009984F83C0001B00A
:100EC000F0BD00BF0EF0F70100F48062212905F0AB
:100ED000040040F08380290640F14881002A00F098
:100EE0004581002840F0428194F83D00618D002941
:100EF00000F0D081616A11F8012B3A616162618D65
:100F000001396185618D002908BF292840F0C2811F
:100F10007868282120F480607860212020632046B2
:100F200084F83D1001B0BDE8F04000F049BC00BFBE
:100F3000E06AB0F12A4F01D10820E06294F83E0047
:100F400040280BD1206D616C002801F0FE0018BF15
:100F500040F00100386101B0F0BD00BF2069B0F57C
:100F6000804F65D194F83D00616C212801F0FE01AD
:100F700018BF01313961606B08B1806A38B9A06B64
:100F8000002800F08781806A002800F0838178685B
:100F900040F40060786001B0F0BD00BF0020009018
:100FA00078690090B8690090009801B0F0BD00BF6A
:100FB000002940F06F81290605F0040140F12281EB
:100FC00010F4806000F01E81002940F01B81204653
:100FD00001B0BDE8F04002F04BBC00BF690640F133
:100FE000D980002A00F0D680002840F0D38094F801
:100FF0003D00618D002900F04D813969626A1170F0
:10100000616A01316162618D01396185618D0029FB
:1010100008BF2A2840F03E812068416821F48061A1
:101020004160222028212063204684F83D10D8E02A
:10103000206D002800F0C080206D012840F02A813A
:10104000606C062101EAD010F130386101B0F0BDCA
:10105000618D61B1618D012940F0E480202818BFC5
:10106000082840F01981386820F48060386000203A
:10107000009078690090B86900900098386840F452
:101080000070386058E100BF56F8340F01684968B5
:1010900026F80A1C36F80A1C19B1216C41F004012B
:1010A0002164796821F400617960FFF765FB01280C
:1010B0000BD0306843F21131C0F600014163FFF7F5
:1010C00001FB10B13068416B8847608D60B12068CA
:1010D0004169490730D4416949063AD4608D18B155
:1010E000206C40F004002064206C28B1204601B040
:1010F000BDE8F04002F09EB92A2D07D10020206300
:10110000282084F83D00204600F058FB94F83D006C
:10111000282859D10020CFF6FF70E062002120205E
:10112000216384F83D00204684F83E1001B0BDE8FC
:10113000F04000F0C7B900BF0069616A0870616AD9
:10114000206801316162618D01396185416949061B
:10115000C4D50069616A0870606A01306062608DA0
:1011600001386085608D0028BAD1BDE7002818BF1E
:10117000002B00F08F80608D002800F08B80606A6B
:1011800010F8011B39616062608D0138608501B023
:10119000F0BD00BF002818BF002B00F07B80608DE1
:1011A000002877D03869616A0870606A013060622F
:1011B000608D013860856DE0606C062101EAD01019
:1011C000F030386101B0F0BD206B222818BF222D0D
:1011D00060D100212020216384F83D00204684F85E
:1011E0003E1001B0BDE8F04000F0E8BAB1FA81F07D
:1011F000400950EA0C004DD1204601B0BDE8F04056
:1012000002F0DEB9B1FA81F0400950EA0C0041D198
:10121000BEF1210F36D1204601B0BDE8F04002F00A
:10122000E5BA00BF618D022914D1102858D80121D8
:1012300014228140C0F20102114251D0396841F4B8
:10124000806139600021009179690091B96900914C
:10125000009954E0396841F4806139607968090582
:1012600063D5421E1F2A5DD80121914048F28102B8
:10127000C8F20002114255D0786840F4805078607E
:1012800053E000BF402B05D1204601B0BDE8F0403F
:1012900002F048BB01B0F0BD10F5803F0CD13868BA
:1012A00020F480603860786800057FF5E0AE38682B
:1012B00020F48060386038E0122A02D101287FF4DF
:1012C000D2AE1028F3D8012101FA00F01421C0F2A7
:1012D00001010842EBD0386840F48060386024E0B7
:1012E000396841F400613960002100917969009109
:1012F000B96900910099396821F480613960796891
:10130000090519D5421E1F2A1AD80121914048F219
:101310008102C8F20002114212D0786840F4805075
:10132000786009E010F5803FA6D000200090786931
:101330000090B869009000980020206501B0F0BDD1
:1013400010F5803FE9D0F7E77047000070B5B8B3FB
:10135000044690F83D0028B9002084F83C0020465F
:1013600000F0F2F9242084F83D002068016821F0A3
:1013700001010160016841F400410160016821F44C
:101380000041016000F03CFC48F28041C0F21E01C7
:1013900040F60013D4F804E088424FF00001C0F298
:1013A0003D0348F2A16C4FF0000238BF0121984282
:1013B000C0F2010C38BF0122E64538BF0A460AB127
:1013C000012070BD4DF68361C4F21B31A0FB0112F8
:1013D0002168950C4B684FF4967623F03F0343EA5F
:1013E0009243754344F6D3564B60C1F262060B6AD2
:1013F000A5FB0656B50923F03F03E64538BF950C1B
:101400006A1C1A430A62CA6948F2A0664CF6FF7366
:10141000C0F20106B64522EA03020BD801384FEAB2
:101420004E03B0FBF3F001306FF31F30042898BF78
:1014300004201EE0A368013863B119230EFB03F3F7
:10144000B0FBF3F001306FF31F3078B100F580404E
:1014500008E000BF0EEB4E03B0FBF3F001306FF37A
:101460001F3028B100F5004003E000BF012000E07C
:1014700001201043C8610868D4E9072320F0C000A8
:10148000104318430860886848F2FF3204F10C06E4
:1014900090434CCE18431043A5698860C86820F07B
:1014A000FF0030432843C860086840F0010008602E
:1014B00000202021206484F83D10206384F83E0041
:1014C00070BD0000704700007047000070470000CA
:1014D0007047000040F22C10C2F2000000210170A1
:1014E000704700002DE9F04383B0994616460F4639
:1014F0000446FFF7F1FB94F83D10202920D1054662
:10150000206800BF8169890716D5FFF7E5FB411BFD
:1015100020681A29F6D381698907F3D50020202194
:10152000206384F83D1084F83E00216C41F02001D6
:10153000216484F83C0003E094F83C10012903D1B5
:10154000022003B0BDE8F083012284F83C20036848
:10155000DDE90B180A9ADB0703D1036843F00103A6
:101560000360036823F400630360212084F83D00D6
:10157000402084F83E000020206462626185608D16
:10158000394620850020CFF6FF70E06220463246C3
:101590004B46CDF80080019502F024FA20B10120DD
:1015A00003B0BDE8F08300BF208D98B920464146C6
:1015B0002A4602F07BFA88B3206C0428EFD1206819
:1015C000016841F400710160012003B0BDE8F083BF
:1015D0000004EBD0204641462A4602F021FC0028B8
:1015E000EAD1616A2268084610F8013B1361238D35
:1015F0006062581E2085678D013F678557697F07A8
:10160000E6D50704E4D048781061881C6062981E13
:101610002085618D01396185DAE700BF20680168A6
:1016200041F400710160202084F83D00002084F81E
:101630003E0084F83C0003B0BDE8F08370B581B093
:101640000025009590F83D50202D39D140F22C0511
:10165000C2F200052D684BF28954ED08C1F2F8443E
:10166000A5FB0454DDE9056E250A192465430095A0
:10167000009D013D0095009D45B30568AC69A40738
:101680001AD5009D013D0095009DFDB10568AC692E
:10169000A40711D5009D013D0095009DB5B10568D9
:1016A000AC69A40708D5009D013D0095009D6DB172
:1016B0000568AC69A407DBD490F83C40012C11D13B
:1016C0004FF0020C604601B070BD00BF0022202127
:1016D000026380F83D1080F83E2000F140054FF095
:1016E000020C2BE02C68E40703D12C6844F00104C1
:1016F0002C602C684FF0000C24F400642C60212432
:1017000080F83D40402480F83E40C0F840C046622A
:10171000A0F82AE0468D06850026CFF6FF76C66241
:1017200041648264C364C0F850C0296841F4807188
:1017300045F8041B4FF4E06180F83CC0286808437A
:101740002860604601B070BD10B586B045F200411A
:101750000068C4F2000100228842049202D006B060
:1017600010BD00BF41F21804C4F20204206840F02A
:1017700008002060206800F0080001900198C02057
:101780000290122003900320059001F5384002A931
:10179000FFF780F96068002140F400106060606825
:1017A000002200F40010019001981F2000F086F83C
:1017B0001F2000F06FF806B010BD00007047000059
:1017C0007047000040F2240040F60441C2F20000DD
:1017D000C2F2000100780A681044086070470000F7
:1017E00080B542F20000C4F20200016841F010012D
:1017F0000160032000F08EF80F2000F005F800F0E3
:1018000027F8002080BD000070B540F22406C2F227
:10181000000640F22C013278C2F200014FF47A73D4
:101820000968B3FBF2F20446B1FBF2F1084600F09E
:10183000E9FB0F2C4FF0010508D838B94FF0FF3005
:1018400021460022002500F039F87460284670BD5A
:1018500082B041F21800C4F202000168022241F095
:1018600001010160016801F00101019101994168E4
:1018700041F080514160406800F080500090009835
:101880000420C4F20100016862F31A61016002B031
:1018900070470000002848BF7047C1B200F01F0029
:1018A000012202FA00F04EF20012CEF2000242EAE9
:1018B000D10121F0030108607047000010B54EF619
:1018C0000C5CCEF2000CDCF80030C3F3022E8EF07C
:1018D0000704042C28BF0424BEF103034FF0FF3E8D
:1018E0000EFA04F438BF0023A14399400EFA03F323
:1018F0009A43114300F00F0200F160430901043ADA
:1019000003F564436244002848BF02F10C031970D8
:1019100010BD00004EF60C51CEF200010A684FF6E1
:10192000FF031A4060F30A2242F0806040F0FD702D
:10193000086070472DE9F04182B00446007841F21A
:101940001C06C007C4F202064AD0306810F0805866
:1019500008D1306840F080503060306800F080502E
:101960000190019847F20007C4F200073868C005EB
:1019700012D4386840F480703860FFF7ADF905463E
:101980003868C00508D4FFF7A7F9401B6428F7D9C9
:10199000032002B0BDE8F081706810F4407012D0EE
:1019A000616801F4407188420DD0706840F2404295
:1019B000C4F24222012320F4407113600023C007C7
:1019C000136071602AD17068616820F44070084328
:1019D000B8F1000F706003D1306820F080503060A3
:1019E0002068810707D556F8181CA26821F44041E9
:1019F000114346F8181CC00604D4002002B0BDE80C
:101A0000F08100BF56F8180CE16820F4800008430C
:101A100046F8180C002002B0BDE8F081FFF75CF931
:101A2000054641F2883700BF70688007CBD4FFF7C6
:101A300053F9401BB8424FF00300F5D9EBE7000023
:101A40002DE9F04381B0002800F0858042F20008C3
:101A5000C4F202080446D8F800000D4600F0070062
:101A600088420CD2D8F8000020F007002843C8F8BC
:101A70000000D8F8000000F00700A8426BD12068F1
:101A800041F204098107C4F2020917D5410705D5BF
:101A9000D9F8001041F4E061C9F80010010705D53C
:101AA000D9F8001041F46051C9F80010D9F80010BD
:101AB000A26821F0F0011143C9F80010C00741D11C
:101AC000D8F8000000F00700A8420CD9D8F80000B0
:101AD00020F007002843C8F80000D8F8000000F004
:101AE0000700A84237D12068410707D5D9F8001070
:101AF000E26821F4E0611143C9F80010000708D53D
:101B0000D9F80000216920F4605040EAC100C9F80A
:101B10000000D9F8002002F00C00082841F2002053
:101B2000C0F27A0050D149F2C843C2F38341C0F6F3
:101B30000003595CD2033BD440F60010C0F23D00D4
:101B4000484341E0606802280AD001282AD159F8A8
:101B5000041C890308D4012001B0BDE8F08300BF54
:101B600059F8041C8901F6D5D9F8001021F00301B9
:101B70000843C9F80000FFF7AFF8064641F288377E
:101B8000D9F80000616800F00C00B0EB810F97D02D
:101B9000FFF7A2F8801BB842F2D9032001B0BDE8DC
:101BA000F08300BF59F8041C8907D4D5DCE700BFD7
:101BB000D9F8002049F2C043C2F34042C0F6000306
:101BC0009A5C4843B0FBF2F0D9F8001049F2A84201
:101BD000C1F30311C0F60002515C40F22C0220FA5E
:101BE00001F140F22800C2F200000068C2F20002D7
:101BF0001160FFF709FE002001B0BDE8F08300008E
:101C000040F22C0041F20401C2F20000C4F20201D1
:101C10000068096849F2B842C1F30221C0F6000227
:101C2000515CC8407047000040F22C0041F20401B2
:101C3000C2F20000C4F202010068096849F2B84229
:101C4000C1F3C221C0F60002515CC84070470000D9
:101C50002DE9F04182B0002868D00446007841F2B6
:101C60000006C007C4F2020625D0706800F00C0020
:101C700004281BD0706800F00C00082802D170689E
:101C8000C00313D46068002800F06881B0F5A02F6D
:101C900000F07C81B0F5803F00F07C81306820F45A
:101CA00080303060306820F4802076E13068800336
:101CB00001D56068D0B32078800718D5706810F01F
:101CC0000C0F07D0706800F00C0008286ED1706807
:101CD000C0036BD43068800702D52069012825D164
:101CE0003068616920F0F80040EAC1003060207877
:101CF00000071FD42078400732D4E56995B1706899
:101D000000F00C00082840F08F80012D0ED0706884
:101D1000216A00F480328A4208D1616A00F47010AE
:101D2000884203D1002002B0BDE8F081012002B05A
:101D3000BDE8F081A069002862D00020C4F24220F2
:101D40000121C0F88014FEF7C7FF0546706A8007BE
:101D500000F18C80FEF7C0FF401B0228F6D92AE173
:101D6000F06910F0805808D1F06940F08050F061BF
:101D7000F06900F080500090009847F20007C4F22C
:101D800000073868C00529D4386840F4807038608E
:101D9000FEF7A2FF054600BF3868C0051ED4FEF757
:101DA0009BFF401B6428F7D905E100BF206900288C
:101DB00040F20000C4F2422000F082800121016064
:101DC000FEF78AFF054600BF306880073FF588AF01
:101DD000FEF782FF401B0228F6D9ECE0E0680028FD
:101DE00000F08080052800F09780012800F098809E
:101DF000306A20F001003062306A20F0040092E086
:101E00000020C4F242200021C0F88014FEF764FFD5
:101E1000054600BF706A80077FF56CAFFEF75CFF78
:101E2000401B0228F6D9C6E00027C4F24227002052
:101E30003866FEF751FF022D05460BD13068800150
:101E400040F1BE80FEF748FF401B02284FF0030020
:101E5000F4D968E7306880017FF564AFFEF73CFF96
:101E6000401B02284FF00300F4D95CE740F22C003D
:101E7000C2F20000006844F6D351C1F26201A0FB37
:101E80000101480A019000BF00BF0198411E0028CF
:101E900001913FF42FAF00BF0198411E002801912E
:101EA0003FF428AF00BF0198411E002801913FF484
:101EB00021AF00BF0198411E00280191E4D119E72C
:101EC00000210160FEF708FF054600BF306880076B
:101ED0007FF50DAFFEF700FF401B02284FF0030017
:101EE000F4D920E7306A20F001003062306A20F037
:101EF00004003062FEF7F0FE054641F2883700BF6D
:101F0000306A800720D5FEF7E7FE401BB8424FF04D
:101F10000300F5D907E700BF306A40F004003062E3
:101F2000306A40F001003062FEF7D6FE054641F20D
:101F3000883700BF306A800706D4FEF7CDFE401B0D
:101F4000B842F7D937E000BFB8F1000F7FF4D5AE43
:101F5000F06920F08050F061CFE600BF306820F4D7
:101F600080303060306820F480203060FEF7B4FEAE
:101F7000054600BF306880037FF59DAEFEF7ACFEDE
:101F8000401B64284FF00300F4D9CCE6306840F4DD
:101F900080203060306840F480303060FEF79CFE76
:101FA000054600BF306880033FF585AEFEF794FE1E
:101FB000401B6428F6D9032002B0BDE8F08100BFC1
:101FC000206AB0F5803F05D17168A26821F4003124
:101FD000114371607168626A21F4741111430843FE
:101FE000706001203866FEF777FE04463068800195
:101FF0003FF598AEFEF770FE001B02284FF003007D
:10200000F4D990E6411E0020B0EB116F1CBF0120F7
:1020100070474EF21002CEF2000251604EF623518C
:10202000CEF20001F0230B70072190601160704721
:10203000704700007047000010B590F83C20012A5E
:102040004FF0020233D080F83D200268D2F804E05D
:10205000D2F808C00C682EF07003234340F2FF74DE
:10206000C4F20004A24253600ADCB2F1804F13D0E4
:1020700040F20043C4F200039A420DD011E000BFC9
:1020800042F60043C4F201039A4205D040F6000331
:10209000C4F200039A4204D149682CF0800319432A
:1020A00091600121002280F83D1080F83C2010460C
:1020B00010BD0000002804BF0120704710B5044681
:1020C00090F83D0028B9002084F83C00204600F03C
:1020D00067F8022084F83D00206840F2FF73026830
:1020E000C4F2000342F6004C9842C4F2010C15DC25
:1020F000B0F1804F1AD040F20041C4F20001884292
:1021000014D0984218DCB0F1804F1DD040F200414D
:10211000C4F20001884217D01AE000BF604505D024
:1021200040F60001C4F200018842EAD1A16822F021
:1021300070020A439842E6DD604505D040F6000192
:10214000C4F20001884203D1216922F440720A439B
:10215000A36922F08001D4F804E0E26819436045E5
:102160000160C262C0F828E002D16169CCF8301089
:1021700001214161002084F8461084F83E1084F863
:102180003F1084F8401084F8411084F8421084F81D
:10219000431084F8441084F8451084F83D1010BDB5
:1021A00010B582B0006840F20041C4F200018842DC
:1021B00012D0B0F1804F29D141F21C00C4F20200CC
:1021C00001681C2441F001010160006800F0010079
:1021D000019001980EE000BF41F21C00C4F2020021
:1021E00001681D2441F002010160006800F0020056
:1021F00000900098204600210022FFF75FFB204658
:1022000002B0BDE81040FFF745BB00BF02B010BDF3
:1022100090F83D1001291CBF01207047022180F871
:102220003D10006840F2FF72C168C4F200029042A3
:1022300041F00101C16009DCB0F1804F12D040F2E1
:102240000041C4F2000188420CD012E042F6004185
:10225000C4F20101884205D040F60001C4F2000139
:10226000884206D1816801F00701062904BF0020D9
:102270007047016841F001010160002070470000D3
:1022800080B590F83C20012A4FF0020200F0C28095
:1022900080F83D20D0F800C04FF67772DCF80830A7
:1022A00023EA0202CCF808200B684F2B28DC1F2BF6
:1022B00044DD202B45D0302B43D0402B40F0AC8068
:1022C000D1F804E0C968DCF82030DCF8202022F0E6
:1022D0000102CCF82020DCF8182022F0F00242EABB
:1022E000011123F00A0242EA0E02CCF81810CCF8D1
:1022F0002020DCF8081041F0470121F0300180E097
:102300006F2B27DDB3F5005F48D0B3F5805F7AD03F
:10231000702B40F08180D1E901E3C968DCF8082026
:1023200043EA0E0322F47F4243EA01211143CCF831
:102330000810DCF8081041F0770162E00BB1102BB7
:102340006AD1DCF8081021F07001194341F007014F
:1023500057E000BF502B35D0602B5DD1D1F804E0A1
:10236000C968DCF82030DCF8202022F01002CCF81C
:102370002020DCF8182022F4704242EA013123F0D8
:10238000A00242EA0E12CCF81810CCF82020DCF89B
:10239000081041F0670121F0100132E0D1E901E3BA
:1023A000C968DCF8082043EA0E0322F47F4243EABE
:1023B00001211143CCF80810DCF8081041F48041E9
:1023C0001FE000BFD1F804E0C968DCF82030DCF879
:1023D000202022F00102CCF82020DCF8182022F086
:1023E000F00242EA011123F00A0242EA0E02CCF89E
:1023F0001810CCF82020DCF8081041F0570121F02B
:102400002001CCF808100022012180F83D100021A5
:1024100080F83C10104680BD0122F5E770470000AF
:1024200010B5016804460869800744BFC8685FEAC0
:10243000807039D40869400744BFC8685FEA4070BB
:102440003ED40869000744BFC8685FEA007045D4FD
:102450000869C00644BFC8685FEAC0604AD408691A
:10246000C0071CBFC8685FEAC07051D10869000688
:1024700044BFC8685FEA006052D40869400644BFA0
:10248000C8685FEA406053D40869800646BFC868E0
:102490005FEA806010BD6FF0200220460A61BDE84F
:1024A0001040FFF7C7BD00BF6FF0020008610120B8
:1024B00020778869800743D02046FFF7AFFF45E0CB
:1024C0006FF00400086102202077886910F4407FD3
:1024D00040D02046FFF7A2FF42E000BF6FF00800A7
:1024E000086104202077C86980073DD02046FFF7A7
:1024F00095FF3FE06FF01000086108202077C86961
:1025000010F4407F3AD02046FFF788FF3CE000BF40
:102510006FF001000861204600F03EF82168A5E751
:102520006FF0800008612046FFF782FD2168A4E774
:102530006FF040000861204600F04AF82168A3E7E8
:10254000204600F025F8204600F024F821680020FD
:1025500020776FE7204600F01BF8204600F01AF8BD
:102560002168002020776CE7204600F011F8204613
:1025700000F010F821680020207769E7204600F07D
:1025800007F8204600F006F821680020207766E76B
:10259000704700007047000040F29000C2F2000057
:1025A00001210171817911B18179013981718179BB
:1025B000002904BF00214166C1790B2904D3002101
:1025C000C171012141717047C1790131C1717047F9
:1025D000704700007047000010B50446006841696C
:1025E00094F84120212A56D111F0800153D000BF28
:1025F000206850E8050F216820F0800041E80502BE
:10260000DAB1206850E8050F216820F0800041E829
:10261000050292B1206850E8050F216820F0800083
:1026200041E805024AB1206850E8050F216820F012
:10263000800041E80502002ADAD1A06B002818BF0B
:10264000FEF71CF8206850E8030F216820F0C00056
:1026500041E80302DAB1206850E8030F216820F056
:10266000C00041E8030292B1206850E8030F2168DE
:1026700020F0C00041E803024AB1206850E8030F8F
:10268000216820F0C00041E80302002ADAD12020AE
:1026900084F841002068406994F84210222940F0F3
:1026A000A78010F0400000F0A38000BF206850E831
:1026B000050F216820F0400041E80502DAB12068EA
:1026C00050E8050F216820F0400041E8050292B172
:1026D000206850E8050F216820F0400041E805021D
:1026E0004AB1206850E8050F216820F0400041E819
:1026F0000502002ADAD1E06B002818BFFDF7BEFF03
:10270000206850E8030F216820F4907041E803022C
:10271000BAB3206850E8030F216820F4907041E8B4
:10272000030272B3206850E8030F216820F4907010
:1027300041E803022AB3206850E8030F216820F41F
:10274000907041E80302002ADAD11AE0206850E8CC
:10275000050F216820F0010041E80502DAB1206888
:1027600050E8050F216820F0010041E8050292B110
:10277000206850E8050F216820F0010041E80502BB
:102780004AB1206850E8050F216820F0010041E8B7
:102790000502002ADAD1206B012824D1206850E8F4
:1027A000030F216820F0100041E80302DAB120682D
:1027B00050E8030F216820F0100041E8030292B1B5
:1027C000206850E8030F216820F0100041E8030260
:1027D0004AB1206850E8030F216820F0100041E85A
:1027E0000302002ADAD1202084F84200002020636E
:1027F000002010BD70470000B0B582B004460068EC
:102800000168C368426901F02F05202D03F02005FF
:1028100006D12DB1204602B0BDE8B04001F0AEBFF8
:102820005FEA017C1EBF02F0010E03F4907212EB0E
:102830000E0253D1226B012A05D111F0100218BFEC
:1028400013F0100236D10A0622D513F080021FD0F1
:1028500094F8411021293FD1A168B1F5805F03D1DF
:102860002169002900F07082216A4A1C22620978DD
:102870004160E18C01390A04E1842DD1C16821F065
:102880008001C160C16841F04001C16002B0B0BDCB
:10289000490621D513F040011ED0C16821F0400146
:1028A000C1602021204684F8411002B0BDE8B0404C
:1028B00000F024BD0021019101680191416801915E
:1028C00001994069400613D4A08DE18DE28D002A64
:1028D00018BF884240F0BA8102B0B0BDCA0718BF25
:1028E00013F4807240F0B6804A0700F1B980BEE070
:1028F000E06B016849688AB2002AEDD0A38D9A4244
:10290000EAD2E1858069202800F09C80206850E8A8
:10291000030F216820F4807041E80302DAB12068D7
:1029200050E8030F216820F4807041E8030292B15F
:10293000206850E8030F216820F4807041E803020A
:102940004AB1206850E8030F216820F4807041E804
:102950000302002ADAD1206850E8050F216820F030
:10296000010041E80502DAB1206850E8050F21684E
:1029700020F0010041E8050292B1206850E8050FFF
:10298000216820F0010041E805024AB1206850E8C2
:10299000050F216820F0010041E80502002ADAD184
:1029A000206850E8050F216820F0400041E805024A
:1029B000DAB1206850E8050F216820F0400041E8B6
:1029C000050292B1206850E8050F216820F0400010
:1029D00041E805024AB1206850E8050F216820F05F
:1029E000400041E80502002ADAD1202084F84200A4
:1029F00000202063206850E8030F216820F01000B9
:102A000041E80302DAB1206850E8030F216820F0A2
:102A1000100041E8030292B1206850E8030F2168DA
:102A200020F0100041E803024AB1206850E8030F8B
:102A3000216820F0100041E80302002ADAD1E06B9F
:102A4000FDF71CFE02206063A08DE18D401A81B26B
:102A5000204674E1626C42F0010262644A0706D5C6
:102A6000BEF1000F03D0626C42F0020262648A077A
:102A700006D5BEF1000F03D0626C42F0040262641E
:102A8000BCF1000F09D545EA0E02B2FA82F25209F2
:102A900003D1626C42F008026264626C002A3FF467
:102AA0001BAF11F0200118BF002D03D0204601F00C
:102AB00065FE20684069616C00F0400001F008018B
:102AC000401800F0B58000BF206850E8030F21686F
:102AD00020F4907041E80302BAB3206850E8030F75
:102AE000216820F4907041E8030272B3206850E836
:102AF000030F216820F4907041E803022AB3206894
:102B000050E8030F216820F4907041E80302002A86
:102B1000DAD11AE0206850E8050F216820F00100A2
:102B200041E80502DAB1206850E8050F216820F07D
:102B3000010041E8050292B1206850E8050F2168C4
:102B400020F0010041E805024AB1206850E8050F75
:102B5000216820F0010041E80502002ADAD1206B4B
:102B6000012824D1206850E8030F216820F01000CC
:102B700041E80302DAB1206850E8030F216820F031
:102B8000100041E8030292B1206850E8030F216869
:102B900020F0100041E803024AB1206850E8030F1A
:102BA000216820F0100041E80302002ADAD1202039
:102BB00084F84200002020632068406940063FD529
:102BC000206850E8050F216820F0400041E8050228
:102BD000DAB1206850E8050F216820F0400041E894
:102BE000050292B1206850E8050F216820F04000EE
:102BF00041E805024AB1206850E8050F216820F03D
:102C0000400041E80502002ADAD1E06BC0B144F28D
:102C10007D41C0F600014163FDF754FD00283FF4FB
:102C20005BAEE06B416B02B0BDE8B040084700BF4F
:102C30002046FFF7DFFD0020606402B0B0BD00BF9A
:102C4000204602B0BDE8B040FFF7D4BD401A21686D
:102C500051E8031F226821F4907142E80313DBB1AD
:102C6000216851E8031F226821F4907142E80313A0
:102C700093B1216851E8031F226821F4907142E862
:102C800003134BB1216851E8031F226821F49071AE
:102C900042E80313002BDAD1216851E8051F2268AE
:102CA00021F0010142E80513DBB1216851E8051F5D
:102CB000226821F0010142E8051393B1216851E82F
:102CC000051F226821F0010142E805134BB121687C
:102CD00051E8051F226821F0010142E80513002B8D
:102CE000DAD1202184F8421000212163216851E8C3
:102CF000031F226821F0100142E80313DBB12168B1
:102D000051E8031F226821F0100142E8031393B138
:102D1000216851E8031F226821F0100142E80313E3
:102D20004BB1216851E8031F226821F0100142E8ED
:102D30000313002BDAD1022281B22046626302B073
:102D4000BDE8B040FFF746BC216A31F8022B6FF3B3
:102D50005F22426021628CE5002804BF0120704799
:102D600010B5044690F8410028B9002084F84000CE
:102D7000204600F063F8242084F841002068D4E95C
:102D80000212C36823F40053C360036923F4405361
:102D90001A430261D4E904231143C268194341F282
:102DA0000C639A431143C1604169A26921F44071E7
:102DB000114343F60002C4F201029042416103D084
:102DC000FEF71EFF02E000BFFEF72EFF626819212A
:102DD00048439100B0FBF1F048F21F51C5F2EB11EE
:102DE000A0FB01235A094FF69C73C0F6FF7302FB48
:102DF0000300322303EB0010A0FB0101F02303EAE0
:102E00005113206803EB0212C1F343111144816096
:102E1000016921F490410161416921F02A01416178
:102E2000C16841F40051C16000202021606484F831
:102E3000411084F84210606310BD00002DE9F0419C
:102E400086B00446006844F20041C4F20001002745
:102E500088420597CDE90377029751D043F60001E8
:102E6000C4F20101884240F09E8041F21807C4F28A
:102E70000207386840F6000540F480403860386842
:102E8000C4F2010500F480400190019838680DF10A
:102E9000080840F0040038603868414600F004003B
:102EA000019001984FF400700290022003900320DB
:102EB00005902846FDF7EEFD4FF480600290002655
:102EC00028464146CDE90366FDF7E4FD40F20825BA
:102ED000A7F57C60C2F2000580212022C5E900062A
:102EE0002846C5E90261C5E90466C5E90626FDF77D
:102EF00017FD00284FF0250618BFFDF7F3F948E04D
:102F000041F21C00C4F20200016841F2180541F4CC
:102F1000003101600068C4F2020500F40030019045
:102F20000198286840F6000840F0040028602868EE
:102F3000C4F2010800F004000190019804200290FE
:102F400002200390032002AE059040463146FDF773
:102F5000A1FD0820CDE90207404631460497FDF760
:102F600099FDA5F6AC7040F24C25C2F20005802117
:102F70002022C5E900072846C5E90271C5E90477A2
:102F8000C5E90627FDF7CCFC4FF0260608B1FDF792
:102F9000A9F9304600210022E5636C62FEF78EFC41
:102FA0003046FEF777FC06B0BDE8F0812DE9F0432E
:102FB00081B0044690F84200202827D18846002995
:102FC0004FF0010000F0C7801746002A00F0C380D0
:102FD000002022211D46606484F842102063FDF722
:102FE0007BFEA785E785A1680746B1F5805F03D121
:102FF0002069002800F0A68046464FF00008E08DCA
:10300000002800F0A48005F1010910E0022001B0C1
:10301000BDE8F083406800266FF35F2028F8020BBC
:10302000E08D0138E085E08D002800F09080206878
:10303000016889060ED4B9F1000F19D055B300BF4D
:10304000FDF74AFEC01BA84224D820680168890603
:10305000F6D500BF002EDDD0A168B1F5805F15D098
:1030600009B9216991B1406800F07F000FE000BF0D
:1030700001688906EED4016889065CBF01685FEAD1
:103080008161E7D401688906F2D5E3E7406806F874
:10309000010BC5E7206850E8030F216820F4D070C9
:1030A00041E80302E2B1206850E8030F216820F4F0
:1030B000D07041E803029AB1206850E8030F2168FC
:1030C00020F4D07041E8030252B1206850E8030FA9
:1030D000216820F4D07041E80302002ADAD100BF51
:1030E000206850E8050F216820F0010041E8050242
:1030F000DAB1206850E8050F216820F0010041E8AE
:10310000050292B1206850E8050F216820F0010007
:1031100041E805024AB1206850E8050F216820F017
:10312000010041E80502002ADAD1202084F841009C
:1031300084F84200002084F84000032001B0BDE87C
:10314000F08300BF0026E08D00287FF45CAF2020D4
:1031500084F84200002001B0BDE8F08370B582B071
:10316000044690F8420020280AD113460A46002956
:103170004FF0010018BF002B06D102B070BD00BF98
:10318000022002B070BD00BF002522202563A2628C
:10319000A385656484F842002168E06B44F2056C05
:1031A00044F2657E44F28946C0F6000CC0F6000E7B
:1031B000C0F600060431C0E90ACEC0E90C65FDF78F
:1031C000F3FB019520680168019140680190019826
:1031D000206928B3206850E8030F216840F480700C
:1031E00041E80302E2B1206850E8030F216840F48F
:1031F000807041E803029AB1206850E8030F21680B
:1032000040F4807041E8030252B1206850E8030F97
:10321000216840F4807041E80302002ADAD100BF3F
:10322000206850E8050F216840F0010041E80502E0
:10323000E2B1206850E8050F216840F0010041E844
:1032400005029AB1206850E8050F216840F001009E
:1032500041E8050252B1206850E8050F216840F0AE
:10326000010041E80502002ADAD100BF206850E8D9
:10327000050F216840F0400041E80502DAB12068FE
:1032800050E8050F216840F0400041E8050292B186
:10329000206850E8050F216840F0400041E8050231
:1032A0004AB1206850E8050F216840F0400041E82D
:1032B0000502002ADAD1002002B070BD704700007C
:1032C00070470000034690F8410020281CBF0220F0
:1032D000704700294FF0010018BF002A00D1704745
:1032E0001962002021219A84DA84586483F84110FD
:1032F0001968CA6842F08002CA60704770470000CF
:10330000FEE7000040F29020C2F20000FDF7EEBCA4
:1033100010B581B000210091406A40F22C01C2F248
:10332000000190F83DC009684BF28952C908C1F20A
:10333000F842A1FB0212110A232251430091009985
:1033400011B30099013900910168096889051FD5F9
:103350000099C9B10099013900910168096889058E
:1033600016D5009981B10099013900910168096869
:1033700089050DD5009939B100990139009101688D
:1033800009688905DBD403E0016C41F02001016488
:10339000446B4FF0000E002C1CBF0021A162816B1A
:1033A00000291CBF00228A620268002C136823F4E3
:1033B00080631360A0F82AE018BFC4F834E0002945
:1033C0001CBF00234B63116821F00101116090F8CC
:1033D0003D1060290CD1202180F83D10002180F89B
:1033E0003E10016401B0BDE81040FDF77BBC00BF9A
:1033F0000CF02801282911D1116841F00101116058
:10340000116841F48061116000210163282180F876
:103410003D1001B0BDE81040FDF796BF202180F8B7
:103420003D10002180F83E1001B0BDE81040FDF7CE
:103430008BBF000010B5044690F83D1090F83E0098
:10344000B0F1100218BF0122403818BF012002421B
:1034500008BF222934D001F0280028283AD10020C2
:103460002063282084F83D0020684168090542D582
:10347000416821F400614160606B90F821100129DE
:1034800058D1A06B43F21131C0F600014163FDF742
:1034900019F9002861D020684169490606D50069FC
:1034A000616A0870616A206801316162016821F017
:1034B00001010160202084F83D00A06B4BE000BFBB
:1034C0002068026822F4006202604268120505D595
:1034D0000CE000BF20684268120507D4602905D0BF
:1034E000202184F83D10002184F83E100021216342
:1034F00041680905BCD494F83D10602950D12021C1
:1035000084F83D10002121644169490606D500690F
:10351000616A0870616A206801316162016821F0A6
:10352000010101602046FDF7DDFB206C000717D18B
:103530001BE000BF43F21131C0F600014163FDF70B
:10354000C1F850B12168606B0A6822F001020A607C
:10355000202184F83D10416B8847206C000704D07F
:103560002068416821F4E061416094F83D00216CDD
:10357000490758BF10BD282810D10020CFF6FF7092
:10358000E06200212020216384F83D00204684F879
:103590003E10BDE81040FDF795BF00BF10BD00BF55
:1035A0004169490605D50069616A0870606A0130A1
:1035B00060622046FDF7C8FE206C0007D0D1D4E73A
:1035C000C16A428D042A07D10168426A4B6823F41C
:1035D00080634B60096911E0428D032A16D10268AD
:1035E0000229536823F48063536005D0042903D073
:1035F000116821F4806111601169426A1170416A99
:1036000001314162418D013941857047428D022A65
:1036100012D101390F2919D8DFE801F00812181268
:1036200018181818181818181818180801680A68AF
:1036300022F480620EE000BF0168426ACAE700BF60
:1036400001680A6842F4806204E000BF01680A6809
:1036500042F400720A600969426A1170416A0268A4
:103660004B1C4362438D013B438512694A70416A9A
:10367000026801314162418D01394185516821F46F
:1036800040715160202180F83D1090F83E200021CB
:10369000402A80F83E1003D10163FDF719BF00BF37
:1036A00012210163FDF710BF81B090F83D1022296F
:1036B00077D1418D042913D30168426A09691170D9
:1036C000416A01314162418D01394185418D0329B2
:1036D00067D10068416821F48061416001B07047A2
:1036E000C26A022A58D0012956D80021009140F21E
:1036F0002C01C2F2000109684BF28952C908C1F2DB
:10370000F842A1FB0212110A01EB8101009100991C
:10371000013900910099002946D001680A68920594
:103720001AD50099013900910099E9B301680A6836
:10373000920511D50099013900910099A1B3016852
:103740000A68920508D5009901390091009959B38A
:1037500001680A689205DAD40A6822F480620A6075
:103760004A6822F4E0624A600969426A1170416A5B
:1037700001314162418D01394185202180F83D10A0
:1037800090F83E200021402A80F83E1028D10163A5
:1037900001B0FDF79DBE00BF0068416821F4806163
:1037A000416001B0704700BF016C41F0200101642D
:1037B0000168426A4B6823F4E0634B600969117049
:1037C000416A01314162418D01394185202180F8F2
:1037D0003D10002180F83E1001B0FDF7B5BD00BFDF
:1037E0001221016301B0FDF76FBE0000C16A90F8BD
:1037F0003D20212A18BF7047428D4AB1416A0268B4
:1038000011F8013B13614162418D013941857047D7
:1038100011F5803F18BF082918D101684A6822F4C1
:10382000E0624A600A6842F400720A6000212022C5
:10383000016380F83D2090F83E2080F83E10402A39
:1038400008BFFDF747BEFDF741BE00BF2029E4D009
:1038500001684A6822F4E0624A6011210163002194
:1038600080F83E10202180F83D10FDF72FBE0000AB
:1038700090F83D1090F83EC0C26A038D002B08BF3F
:10388000212919D0212905D0BCF1400F08BF2229D8
:1038900000D07047418D69B390F83E10402908BFB1
:1038A00000F040B8416A026811F8013B13614162BF
:1038B000418D01394185704712F5803F18BF082AB4
:1038C0001ED101684A6822F4E0624A600A6842F444
:1038D00000720A6000212022016380F83D2090F8E8
:1038E0003E2080F83E10402A08BFFDF7F3BDFDF7EB
:1038F000EDBD00BF0068416821F480614160704700
:10390000202ADED001684A6822F4E0624A60112170
:103910000163002180F83E10202180F83D10FDF762
:10392000D5BD000090F83D10026D5AB1026D012A1C
:1039300014D10168826CD2B20A61016D0131016556
:10394000704700BFC26C816C012A15D10268C9B2F0
:103950001161016D02310165704700BF026D022ADD
:1039600012D1222918D101680A6842F480720A60D3
:10397000016D0131016570470268C1F307211161D2
:10398000016D01310165704700684169090644BF56
:1039900000210161704700BF428D5AB1212909D130
:1039A000416A026811F8013B13614162418D01399E
:1039B00041857047428D002A08BF2129EAD101685C
:1039C0004A6822F4E0624A600A6842F400720A60BF
:1039D00000212022016380F83D2080F83E10FDF791
:1039E00079BD00002DE9F04383B0044600680D4620
:1039F00001680A9F0B9E41F48071994690460160D0
:103A000020464FF0011100223B46009600F0AEF830
:103A100050B120680068C00544BF4FF400702064B6
:103A2000032003B0BDE8F083206805F0FE010161CA
:103A30000221C0F2010120463A46334600F080F9E7
:103A400020B1012003B0BDE8F08300BF0020029048
:103A50002068324641690291806939460290029895
:103A6000204600F0DDF958B1206C0428E9D1206827
:103A7000016841F400710160012003B0BDE8F083EA
:103A80002068B9F1010F0AD04FEA182101612046E0
:103A90003946324600F0C4F90028E5D120685FFAC3
:103AA00088F10161002003B0BDE8F08370B50368C0
:103AB000044653F8140F400711D40E46481C29D071
:103AC00086BB00BF1868400527D4FDF705F92368B9
:103AD00053F8140F400739D518684007F2D5002075
:103AE00070BD00BF18684007F9D41868400514D4A9
:103AF00018684007F3D4186840050ED418684007CA
:103B0000EDD41868400508D4186840074FF000004D
:103B100048BF70BD18684005E4D56FF48060186038
:103B2000042014E0154603E053F8140F4007D6D4E0
:103B300018684005F1D4FDF7CFF8401B2368B04268
:103B4000F2D958694007EFD4202000E0202000215E
:103B50002022216384F83D2084F83E10226C10431B
:103B60002064012084F83C1070BD00002DE9F04174
:103B7000054600681E46144601F47F0201338FB2E9
:103B800042D0DDF81880B2F5803F40F08780406970
:103B90003840C01BB0FA80F04009A04240F0C88015
:103BA0004EB924E040693840C01BB0FA80F04009AB
:103BB000A04240F0BD80FDF78FF8A0EB0801286817
:103BC000B142EFD941693940C91BB1FA81F14909C4
:103BD000A142E7D19BE000BF40693840C01BB0FA6A
:103BE00080F04009A0424FF0000040F0A680FDF7B1
:103BF00073F8286841693940C91BB1FA81F1490954
:103C0000A142E9D183E000BFB2F5803F24D100BFDB
:103C100041693940C91BB1FA81F14909A14240F01B
:103C2000878041693940C91BB1FA81F14909A14234
:103C300040F07E8041693940C91BB1FA81F14909E0
:103C4000A14275D141693940C91BB1FA81F14909D5
:103C5000A142DDD06CE000BF81693940C91BB1FAD7
:103C600081F14909A14263D181693940C91BB1FA87
:103C700081F14909A1425BD181693940C91BB1FA7F
:103C800081F14909A14253D181693940C91BB1FA77
:103C900081F14909A142DFD04AE000BF8069384084
:103CA000C01BB0FA80F04009A04241D146B923E0E0
:103CB00080693840C01BB0FA80F04009A0423BD177
:103CC000FDF70AF8A0EB08012868B142F0D9816934
:103CD0003940C91BB1FA81F14909A142E8D116E086
:103CE00080693840C01BB0FA80F04009A0424FF014
:103CF000000018BFBDE8F081FCF7EEFF286881697D
:103D00003940C91BB1FA81F14909A142E8D100202B
:103D10002021286385F83D1085F83E00296C41F08C
:103D20002001296485F83C000120BDE8F08100BF36
:103D30000020BDE8F08100BF0020BDE8F081000058
:103D4000F0B581B0044600681D4643698FB203EAAE
:103D50000701B94202D1002001B0F0BD4169164609
:103D6000013201F4806125D0002940D1CEB100BFDD
:103D7000FCF7B2FF411B2068B14203D941693940C9
:103D8000B9424BD141693940B942E4D04169490552
:103D9000EED52CE041693940B942DCD04169490592
:103DA00025D4FCF799FF206841693940B942F1D028
:103DB000202024E0D9B941693940B942CBD04169CA
:103DC000490514D441693940B942C4D04169490513
:103DD0000DD441693940B942BDD04169490506D485
:103DE00041693940B942B6D041694905E3D5016816
:103DF00041F4007101606FF4806141610420002191
:103E00002022216384F83D2084F83E10226C104368
:103E1000206484F83C10012001B0F0BD2020EEE7C2
:103E200070B50368044653F8140F000611D40E460B
:103E3000481C29D086BB00BF1868400527D4FCF772
:103E40004BFF236853F8140F000639D51868000695
:103E5000F2D5002070BD00BF18680006F9D41868BC
:103E6000400514D418680006F3D4186840050ED431
:103E700018680006EDD41868400508D418680006D4
:103E80004FF0000048BF70BD18684005E4D56FF4DE
:103E900080601860042014E0154603E053F8140F06
:103EA0000006D6D418684005F1D4FCF715FF401B76
:103EB0002368B042F2D958690006EFD4202000E010
:103EC000202000212022216384F83D2084F83E1028
:103ED000226C10432064012084F83C1070BD000067
:103EE00010B584B040F2941042F20041C2F20000DA
:103EF000C4F201014FF4807C012400234FF46022BE
:103F000080E80A10022104730375C2610161FCF7A5
:103F1000B5FA002818BFFCF7E5F91120CDE9010436
:103F20000720039040F29410C2F2000001A9FCF7B0
:103F3000DFF9002818BFFCF7D5F900200190022016
:103F4000029040F29410C2F2000001A9FCF7D0F9EF
:103F5000002818BFFCF7C6F904B010BD80B582B0C8
:103F600041F21400C4F202000168002241F0010194
:103F700001600068002100F00100019001980B2011
:103F8000FDF79CFC0B20FDF785FC0F200021002293
:103F9000FDF794FC0F20FDF77DFC1020002100228E
:103FA000FDF78CFC102002B0BDE88040FDF772BC2C
:103FB0002DE9F04F85B041F21800C4F2020001680B
:103FC00041F2000441F0100101600168C4F20104F3
:103FD00001F01001019101990168002241F02001D6
:103FE000016001684FF4005601F020010191019930
:103FF00001684FF0000841F004010160016801F020
:10400000040101910199016841F008010160006813
:104010004FF4005100F00800019001982046FCF791
:1040200055FE20464FF4004101224FF4004B4FF063
:10403000010AFCF74BFEA4F500652846E0210022AA
:104040004FF0E009FCF742FECDE9016A01AE02271C
:1040500020463146CDE90377FCF71CFD4FF4804044
:10406000CDE9010820463146CDF80C80FCF712FD61
:1040700020463146CDE901BACDE903A7FCF70AFD98
:104080000020C1F21100CDE9020A2846314601970D
:10409000FCF700FD28463146CDE9019ACDE90387BA
:1040A000FCF7F8FC4FF48050CDE90108A4F58060DE
:1040B0003146CDF80C80FCF7EDFC072000210022F2
:1040C000FDF7FCFB0720FDF7E5FB05B0BDE8F08F31
:1040D00080B540F2902045F20041C2F20000C4F2E7
:1040E000000141F6802200234FF4804CC0F206020A
:1040F00080E80E00C0E9033CC0E90533C0E907339E
:10410000FDF724F9002808BF80BDBDE88040FCF71A
:10411000E9B8000080B586B040F2E4200021C2F288
:1041200000004FF0804243F67F634FF00A0C059188
:10413000CDE90311CDE90011C0E90023C0E9021C5B
:1041400001618161FDF7B6FF002818BFFCF7CAF8CE
:104150004FF48050029040F2E420C2F2000002A925
:10416000FEF78EF8002818BFFCF7BCF840F2E420F8
:10417000C2F200006946FDF75FFF002818BFFCF798
:10418000B1F806B080BD000080B586B040F22C309A
:1041900040F200420021C2F20000C4F2000243F6E5
:1041A0007F634FF47A7C0591CDE90311CDE90011CD
:1041B000C0E90023C0E9021C01618161FDF77AFFBB
:1041C000002818BFFCF78EF84FF48050029040F2A0
:1041D0002C30C2F2000002A9FEF752F8002818BFE6
:1041E000FCF780F840F22C30C2F200006946FDF77F
:1041F00023FF002818BFFCF775F806B080BD00004B
:1042000080B540F2743043F60001C2F20000C4F2FF
:10421000010100234FF00C0C4FF4165280E80E0001
:10422000C0E90333C0E905C3C361FEF795FD00286B
:1042300008BF80BDBDE88040FCF754B880B540F2AF
:10424000BC3044F20041C2F20000C4F2000100237D
:104250004FF00C0C4FF4E13280E80E00C0E903335C
:10426000C0E905C3C361FEF777FD002808BF80BD24
:10427000BDE88040FCF736B8FEE70000FEE700002E
:104280007047000080B540F20440C2F200004FF4D5
:104290008061FBF799FF80BD00EBC11040F2044143
:1042A000C2F200010A54704710B582B0AE200DF181
:1042B00005048DF805002046012100F0A5F848F21C
:1042C000D500ADF805002046022100F09DF841F22E
:1042D0008D40ADF805002046022100F095F8402001
:1042E0008DF805002046012100F08EF8A1208DF800
:1042F00005002046012100F087F8C8208DF8050050
:104300002046012100F080F841F2DA20ADF80500E6
:104310002046022100F078F843F6A870ADF80500B9
:104320002046022100F070F8D320ADF805002046A9
:10433000022100F069F82020ADF805002046022196
:1043400000F062F82120ADF805007F208DF807000D
:104350002046032100F058F82220ADF80500072080
:104360008DF807002046032100F04EF847F68170D3
:10437000ADF805002046022100F046F8A4208DF893
:1043800005002046012100F03FF8A6208DF8050029
:104390002046012100F038F8AF208DF805002046B6
:1043A000012100F031F802B010BD000040F22C10E5
:1043B000C2F200000078013818BF012070470000E9
:1043C00010B582B02120ADF805007F200DF1050465
:1043D0008DF807002046032100F016F82220ADF8E2
:1043E000050007208DF807002046032100F00CF897
:1043F00040F20440C2F200004FF4806100F018F86F
:1044000002B010BD7047000080B584B0CDE9000156
:1044100040F290204FF0640CC2F20000782100229C
:104420000123CDF808C0FDF75DF804B080BD0000A1
:1044300010B582B0CDE9000140F29020C2F2000038
:104440007821402201230124FDF7F8F840F22C10D6
:10445000C2F20000047002B010BD0000FDF7B2B956
:104460007047000040F2E420C2F20000FDF7D8BF20
:1044700040F22C30C2F20000FDF7D2BF406A0021AA
:10448000C185C184FEF7B6B9406A01684A6990F8EF
:104490004130212B2DD112F080022AD00021C1847D
:1044A000016851E8031F026821F0C00142E80313CC
:1044B000DBB1016851E8031F026821F0C00142E846
:1044C000031393B1016851E8031F026821F0C00192
:1044D00042E803134BB1016851E8031F026821F061
:1044E000C00142E80313002BDAD1202180F84110EB
:1044F0000168496990F84220222A40F07D8011F03D
:10450000400179D00021C185016851E8031F02688C
:1045100021F4907142E80313BBB3016851E8031F13
:10452000026821F4907142E8031373B3016851E803
:10453000031F026821F4907142E803132BB3016852
:1045400051E8031F026821F4907142E80313002B25
:10455000DAD11AE0016851E8051F026821F0010173
:1045600042E80513DBB1016851E8051F026821F03C
:10457000010142E8051393B1016851E8051F026883
:1045800021F0010142E805134BB1016851E8051F14
:10459000026821F0010142E80513002BDAD1016B1A
:1045A000012924D1016851E8031F026821F010019C
:1045B00042E80313DBB1016851E8031F026821F0F0
:1045C000100142E8031393B1016851E8031F026828
:1045D00021F0100142E803134BB1016851E8031FB9
:1045E000026821F0100142E80313002BDAD12021E8
:1045F00080F8421000210163416C41F010014164D8
:10460000FEF7F8B80168406A0968890600F19F80E2
:104610000021C185016851E8031F026821F48071FF
:1046200042E80313E3B1016851E8031F026821F473
:10463000807142E803139BB1016851E8031F0268CF
:1046400021F4807142E8031353B1016851E8031F5C
:10465000026821F4807142E80313002BDAD100BF15
:10466000016851E8051F026821F0010142E80513C5
:10467000BBB3016851E8051F026821F0010142E85F
:10468000051373B3016851E8051F026821F00101A9
:1046900042E805132BB3016851E8051F026821F0B9
:1046A000010142E80513002BDAD11AE0016851E854
:1046B000051F026821F0400142E80513DBB10168E3
:1046C00051E8051F026821F0400142E8051393B14B
:1046D000016851E8051F026821F0400142E8051316
:1046E0004BB1016851E8051F026821F0400142E822
:1046F0000513002BDAD1202180F84210016B01292B
:1047000025D100BF016851E8031F026821F01001A4
:1047100042E80313DBB1016851E8031F026821F08E
:10472000100142E8031393B1016851E8031F0268C6
:1047300021F0100142E803134BB1016851E8031F57
:10474000026821F0100142E80313002BDAD10021A6
:104750004163016B012918BFFEF7B0BD818DFDF7E4
:1047600039BF0000406A01214163016B012918BF74
:10477000FEF7A6BD818D4908FDF72CBF81B090F8EA
:104780004210222921D183680246B3F5805F09D106
:1047900052F8281F52F8183C002B63D003685B685E
:1047A0000AE000BF52F8281F13B90369002BF5D0A7
:1047B00003685B6803F07F030B70116801311160BF
:1047C000C18D01390A04C18502D001B0704700BF14
:1047D0000168CA6822F02002CA60CA6822F48072A6
:1047E000CA604A6922F001024A61202180F8421021
:1047F00000214163026B012A3CD10163016851E849
:10480000031F026821F0100142E80313DBB10168C5
:1048100051E8031F026821F0100142E8031393B12D
:10482000016851E8031F026821F0100142E80313F8
:104830004BB1016851E8031F026821F0100142E802
:104840000313002BDAD101680A68D20606D50022CC
:1048500000920A680092496800910099818D01B028
:10486000FDF7B8BE026852686FF35F2221F8022B91
:104870008162A5E701B0FEF721BD000040F274306F
:10488000C2F20000FDF7B8BF40F2BC30C2F2000037
:10489000FDF7B2BFFEE7000096B0FCF7A1FF0024D1
:1048A0000120CDE91144CDE90F440C904FF4803143
:1048B000109002250CA80694CDE90444CDE90D140E
:1048C000CDE913511594FDF7C3F928B1EFF310802A
:1048D00072B600BFFEE700BF0F20CDE907054FF419
:1048E0008060CDE90A0407A800210994FDF7A8F823
:1048F00020B1EFF3108072B6FEE700BF02200390F4
:104900000020059003A8FDF715F828B1EFF31080FB
:1049100072B600BFFEE700BFFFF74AFBFFF71EFBC2
:10492000FFF7D6FBFFF78AFCFFF76AFCFFF7D8FA20
:10493000FFF72AFCFFF7EEFBFFF7B6FCFFF7A2FC40
:10494000FFF73EFD1920FCF77DF800BFFFF72EFDB5
:104950000028FBD040F2101840F29009C2F2000883
:104960000021C2F200094FF07E50C8E90211C9F8D7
:104970003C004FF03F401E2449F2C44AC9F84000B1
:10498000C9F82C40C9F83010C0F6000ADAF8005017
:10499000D9F8300040F6000BC4F2010B04F04EFBD6
:1049A00001462846002504F075FB0021C4F234318D
:1049B00004F066FAC9F84400C9F84840C9F8105034
:1049C000C9F82850DAF80060D9F8280004F04EFB46
:1049D0000146304604F05EFB4AF20001C4F28C61ED
:1049E00004F04EFAC9F84C0048F6B120C2F2A40017
:1049F000C9F81C004CF6B100C1F2B840C9F820005B
:104A00004DF2A120C0F21E00C9F82400D9F84400DC
:104A100004F0E0F903F0C0FB0646D9F810000F4699
:104A200003F054FF02460B463046394603F0DAFFE6
:104A30000023C4F22403002203F06CFD03F07CFC8D
:104A4000C9F85000D9F8200004F010FBDAF8001083
:104A500002460846114604F01DFB49F2A431C4F693
:104A6000D66104F00DFAC9F8540049F2DC40C0F6F2
:104A70000000006804F0AEF90646D9F854000F466D
:104A800004F0A8F903F0D6FB32463B4603F0AAFF38
:104A900003F052FCC9F85800D9F84C0004F09AF918
:104AA00003F07AFB0646D9F850000F4604F092F95D
:104AB00002460B463046394603F094FF41F2D024BB
:104AC000C4F263140022234603F08CFF064649F229
:104AD000D840C0F6000000680F4604F07BF902469B
:104AE0000B463046394603F015FD03F0A9FEC9F820
:104AF0003400D9F84C0004F06DF903F09BFB064636
:104B0000D9F850000F4604F065F902460B463046CE
:104B1000394603F067FF0022234603F063FF064691
:104B2000D9F858000F4604F055F902460B463046B6
:104B3000394603F0EFFC03F083FEC9F83800C9F8EA
:104B40003450C9F83850D9F8440004F043F903F060
:104B500023FB03F0F1FBC8F81000D9F83C0004F087
:104B600039F903F067FB03F0E7FBC8F81400D9F844
:104B7000400004F02FF903F0ADFB03F0DDFBC8F8B3
:104B800018000520C9F85C50C9F86050C9F8645095
:104B9000C9F86850C9F8185089F8045089F80550C8
:104BA00089F8060040F2E4200124C2F2000089F8EE
:104BB000075089F8035089F8025089F8005089F8A5
:104BC0000850C9F80C40FDF723FB40F2301740F2C3
:104BD000743640F60408C2F20007C2F200060BF574
:104BE00000604FF0640BC2F2000840F2D32A01903B
:104BF0000DE000BF89F80850FFF744FB40F2BC30DD
:104C0000C2F2000041464FF48062FEF7A7FA99F81D
:104C10000400012808BF89F80450D9F80C000128C5
:104C20006ED138466421C9F83450C9F83850FBF7C2
:104C3000CBFA40F200013046C2F200010822FEF732
:104C400041FB32200C95C9F8644089F8060000BF8A
:104C5000D9F86400012851D10C9801223918304646
:104C60006423FEF7A3F90C98385CAE28F0D132200B
:104C700089F806000C9801300C9005E0C9F86450E2
:104C8000C9F8105089F806B0D9F864000128DFD1BE
:104C90000C980122391830460A23FEF787F90C9840
:104CA000385CA728F0D10C9801300C90D9F864102A
:104CB0000C98012913D11A2811D800BF0C98012291
:104CC000391830460523FEF771F90C9801300C9025
:104CD000D9F864100C98012901D11B28EED338793A
:104CE0008528CBD1B7F80B0040BAC9F81000C9F835
:104CF000645089F806B089F80840C5E7C9F80C5037
:104D000001984FF48041FBF7D3FF0138B0FA80F0EF
:104D1000400989F8000040F60000C4F2010000F5E7
:104D200080604FF48051FBF7C3FFD9F86010012871
:104D30000ED1012927D140F20000C2F2000000F19B
:104D4000190130460922FEF7BDFA002019E000BF24
:104D5000C9B999F80000012808D140F20000C2F258
:104D6000000000F108013046082207E040F2000090
:104D7000C2F2000000F1100130460922FEF7A2FA4B
:104D80000120C9F8600099F8050001287FF43FAFC1
:104D900099F8030080B199F8020040F60004C4F2CB
:104DA0000104092810D3204620210022FBF78EFFA2
:104DB000204680210FE000BF40F60000C4F2010051
:104DC0004021FBF77BFF0AE0204680210022FBF711
:104DD0007DFF204620210122FBF778FF01240025DA
:104DE00089F8055000F0C0F93046C9F85C50FDF76D
:104DF000F3FB0DE018F80A004FF0640B284400F1B3
:104E00000B0540F2D32A554505F1010580F0D88005
:104E100018F80500FD28F6D105F1010A18F80A0076
:104E200028444044007BFD28EBD105EB080B9BF8A0
:104E3000070089F8010099F801001E280ED099F8A2
:104E4000010021286AD099F80100182800F0A480F8
:104E500099F801000128CDD1ABE000BF40F6000079
:104E6000C4F201004021002289F80340FBF72EFF25
:104E7000DBF80E00DBF81610DBF812400291C9F8DF
:104E80006C00D9F86C000021C9F83C00D9F83C004E
:104E9000C4F2343104F0FEF849F2C448C0F6000808
:104EA000D8F8001003F0ECFF04F0ACF8C9F82C00BF
:104EB000C9F87440D9F874000021C9F84400D9F841
:104EC0004400C4F2343104F0E5F8D8F8001003F0DF
:104ED000D7FF04F097F8C9F8300002984C4644F820
:104EE000780F206844F8084C44F8380C54F8380C13
:104EF0000021C4F2343104F0CDF8D8F8001040F6A7
:104F00000408C2F2000803F0BBFF04F07BF844F889
:104F1000300C012499F80100212894D1DBF80E000F
:104F2000DBF81210DBF81620C9F81C00C9F82010B5
:104F3000C9F8242018F80A109BF824001B291CBF6C
:104F40009BF8251040EA0120C9F8280049F2C44026
:104F5000C0F60000D0F80080D9F8280004F086F8E8
:104F60000146404604F096F84AF20001C4F28C6112
:104F700003F086FFC9F84C0099F8080040F60408D1
:104F8000C2F20008012804BF022089F8080099F83D
:104F9000010018287FF45CAF9BF812009BF82710E3
:104FA00089F8090089F8021099F8010001287FF4B6
:104FB00021AFBBF8180004F041F8C9F8180019E750
:104FC00040464FF48061FBF7FFF899F80800002590
:104FD00002287FF411AE99F802000528FFF40AAE0A
:104FE000D9F8440003F0F6FE03F0D6F80446D9F8E9
:104FF0001000884603F06AFC02460B4620464146F4
:1050000003F0F0FC00230022C4F2240303F082FA30
:1050100003F092F949F2C444C9F85000C0F6000404
:10502000D4F80080D9F8280004F020F80146404662
:1050300004F030F84AF20001C4F28C6103F020FF62
:10504000C9F84C00D9F81C0004F010F82168024699
:105050000846114604F01EF849F2A431C4F6D661A0
:1050600003F00EFF40F21014C2F20004206049F277
:10507000DC40C0F60000006803F0ACFE029020683F
:10508000884603F0A7FE03F087F8029A434603F030
:10509000A9FC03F051F9C9F85800D9F84C0003F005
:1050A00099FE03F0C7F80446D9F85000884603F08B
:1050B00091FE02460B462046414603F093FC41F226
:1050C000D024C4F263140022234603F08BFC029028
:1050D000D9F85800884603F07DFE024602980B4638
:1050E000414603F017FA03F0ABFBC9F83800D9F8D2
:1050F0004C0003F06FFE03F04FF80290D9F8500017
:10510000884603F067FE024602980B46414603F0CC
:1051100069FC00222346012403F064FC029049F25A
:10512000D840C0F600000068884603F053FE0246EF
:1051300002980B46414640F60408C2F2000803F00C
:10514000E9F903F07DFBC9F83400D9F82000D9F85B
:1051500038100844C9F83800D9F81C00D9F83410C0
:105160000844C9F8340045E52DE9F04F83B040F21A
:105170009007C2F200073878012840F0078149F211
:10518000E04BC0F6000B9BF8DC2000200021FFF76D
:1051900083F89BF8DD2001200021FFF77DF89BF8C4
:1051A000DE2002200021FFF777F89BF8DF200320A4
:1051B0000021FFF771F89BF8E02004200021FFF7A1
:1051C0006BF89BF8E12005200021FFF765F89BF8BC
:1051D000FA2006200021FFF75FF89BF8FB2007204C
:1051E0000021FFF759F89BF8FC2008200021FFF769
:1051F00053F89BF8FD2009200021FFF74DF89BF89C
:10520000FE200A200021FFF747F89BF8FF200B2023
:105210000021FFF741F89BF836210C200021FFF711
:105220003BF89BF837210D200021FFF735F89BF85C
:1052300038210E200021FFF72FF89BF839210F208D
:105240000021FFF729F89BF83A2110200021FFF7F1
:1052500023F89BF83B2111200021FFF71DF89BF854
:105260003C2112200021FFF717F89BF83D21132065
:105270000021FFF711F89BF83E2114200021FFF7D1
:105280000BF89BF83F2115200021FFF705F89BF84C
:10529000402116200021FEF7FFFF9BF84121172037
:1052A0000021FEF7F9FF386944F61F61884200F2D9
:1052B0007D82386978613869002800F077824CF681
:1052C000CD4200244FF0010ACCF6CC4217E000BFDB
:1052D00040F29007C2F200074CF6CD427869CCF656
:1052E000CC42A0FB0201C80878610AEB8A00396948
:1052F0004FEA400A8A4504F1010400F257827869B6
:105300004FF00009A0FB0212D10801EB8101A0EBD4
:10531000410078707978A4EB8400342202EB4006D7
:1053200001F11000F1B2C0B28D1D00EB400004216C
:1053300001EB40085FFA89F141441BF80120F0B20B
:10534000002109F10109FEF7A7FF0136F0B28542FD
:10535000F0D8BAF1010FBBD10134A4EB84003421A1
:1053600001EB4005E8B2861D002000BFC1B25944E0
:1053700091F85820471CE8B20021FEF78DFF013557
:10538000E8B286423846F1D8A2E700BF49F2257B51
:10539000C0F6000B9BF8442204200021FEF77CFF9E
:1053A0009BF84C2204200121FEF776FF9BF8452252
:1053B00005200021FEF770FF9BF84D2205200121FA
:1053C000FEF76AFF9BF8462206200021FEF764FFE5
:1053D0009BF84E2206200121FEF75EFF9BF8472234
:1053E00007200021FEF758FF9BF84F2207200121DC
:1053F000FEF752FF9BF8482208200021FEF74CFFE1
:105400009BF8502208200121FEF746FF9BF8492215
:1054100009200021FEF740FF9BF8512209200121BD
:10542000FEF73AFF9BF84A220A200021FEF734FFDC
:105430009BF852220A200121FEF72EFF9BF84B22F7
:105440000B200021FEF728FF9BF853220B2001219F
:10545000FEF722FF9BF894220C200021FEF71CFF90
:105460009BF89C220C200121FEF716FF9BF8952249
:105470000D200021FEF710FF9BF89D220D20012139
:10548000FEF70AFF9BF896220E200021FEF704FF8C
:105490009BF89E220E200121FEF7FEFE9BF897222C
:1054A0000F200021FEF7F8FE9BF89F220F2001211C
:1054B000FEF7F2FE9BF8982210200021FEF7ECFE8A
:1054C0009BF8A02210200121FEF7E6FE9BF899220E
:1054D00011200021FEF7E0FE9BF8A12211200121FE
:1054E000FEF7DAFE9BF89A2212200021FEF7D4FE86
:1054F0009BF8A22212200121FEF7CEFE9BF89B22F0
:1055000013200021FEF7C8FE9BF8A32213200121DF
:10551000FEF7C2FE9BF8342314200021FEF7BCFEE8
:105520009BF83C2314200121FEF7B6FE9BF835239F
:1055300015200021FEF7B0FE9BF83D231520012128
:10554000FEF7AAFE9BF8362316200021FEF7A4FEE4
:105550009BF83E2316200121FEF79EFE9BF8372381
:1055600017200021FEF798FE9BF83F23172001210A
:10557000FEF792FE9BF8382318200021FEF78CFEE0
:105580009BF8402318200121FEF786FE9BF8392363
:1055900019200021FEF780FE9BF8412319200121EC
:1055A000FEF77AFE9BF83A231A200021FEF774FEDC
:1055B0009BF842231A200121FEF76EFE9BF83B2345
:1055C0001B200021FEF768FE9BF843231B200121CE
:1055D000FEF762FE9BF844231C200021FEF75CFED0
:1055E0009BF84C231C200121FEF756FE9BF8452317
:1055F0001D200021FEF750FE9BF84D231D200121A8
:10560000FEF74AFE9BF846231E200021FEF744FECB
:105610009BF84E231E200121FEF73EFE9BF84723F8
:105620001F200021FEF738FE9BF84F231F20012189
:10563000FEF732FE9BF8482320200021FEF72CFEC7
:105640009BF8502320200121FEF726FE9BF84923DA
:1056500021200021FEF720FE9BF85123212001216B
:10566000FEF71AFE9BF84A2322200021FEF714FEC3
:105670009BF8522322200121FEF70EFE9BF84B23BC
:1056800023200021FEF708FE9BF85323232001214D
:10569000FEF702FE386944F62061884280F02482D9
:1056A000386978613869002800F01E824CF6CD42D6
:1056B0004FF000090120CCF6CC4217E040F29007F1
:1056C000DDF80490C2F200074CF6CD427869CCF6C2
:1056D000CC42A0FB0201C80878610AEB8A00396954
:1056E0004000884209F1010900F2FE8102907869C8
:1056F0004FF0000AA0FB0212D10801EB8101A0EBE0
:1057000041007870787848211030A1EBC907C0B209
:10571000F9B20001CDF8049001F1080500F1040888
:1057200000F10C095FFA8AF608EB06001BF800206E
:10573000FCB220460021FEF7AFFD09EB06001BF886
:105740000020204601210AF1010AFEF7A5FD0137DC
:10575000F8B28542E6D8DDF808A0BAF1010FADD164
:10576000DDF8049048216FEA090001EBC005E8B2BA
:1057700000F10808002600BFF0B200EB0B0797F815
:10578000E420ECB220460021FEF786FD97F8EC20DD
:10579000204601210136FEF77FFD0135E8B2804544
:1057A000EAD840F2900709F101098BE76320002154
:1057B000FF220024FEF770FD49F69A1649F6991962
:1057C00049F6991AC9F69916CCF21D09C3F6A97AB9
:1057D000B8690021C4F27A4103F052FB03F0FAFAEF
:1057E00032464B4602F0DAFD074620460D4603F0EE
:1057F0006DF83246534603F0F5F802460B4638463C
:10580000294604F1640803F033FB00284FF0FF023F
:105810005FFA88F040F290074FF0000118BF812234
:10582000C2F20007FEF738FD0134142CD0D14EF639
:105830000014782000213C22C3F2A454FEF72CFD72
:10584000792000213C22FEF727FD9BF8EE20002066
:105850000121FEF721FD9BF8EF2001200121FEF739
:105860001BFD9BF8F02002200121FEF715FD9BF89F
:10587000F12003200121FEF70FFD9BF8F220042008
:105880000121FEF709FD9BF8F32005200121FEF719
:1058900003FD9BF8242106200121FEF7FDFC9BF867
:1058A000252107200121FEF7F7FC9BF8262108207F
:1058B0000121FEF7F1FC9BF8272109200121FEF7C9
:1058C000EBFC9BF828210A200121FEF7E5FC9BF860
:1058D00029210B200121FEF7DFFC9BF836210C204B
:1058E0000121FEF7D9FC9BF837210D200121FEF79D
:1058F000D3FC9BF838210E200121FEF7CDFC9BF84C
:1059000039210F200121FEF7C7FC9BF83A21102016
:105910000121FEF7C1FC9BF83B2111200121FEF77C
:10592000BBFC9BF80C2118200121FEF7B5FC9BF86D
:105930000D2119200121FEF7AFFC9BF80E211A2042
:105940000121FEF7A9FC9BF80F211B200121FEF786
:10595000A3FC9BF810211C200121FEF79DFC9BF865
:1059600011211D200121FEF797FC9BF8CA201E2063
:105970000121FEF791FC9BF8CB201F200121FEF7AF
:105980008BFC9BF8CC2020200121FEF785FC9BF8A6
:10599000CD2021200121FEF77FFC9BF8CE20222084
:1059A0000121FEF779FC9BF8CF2023200121FEF78F
:1059B00073FC9BF83C2124200121FEF76DFC9BF831
:1059C0003D2125200121FEF767FC9BF83E21262082
:1059D0000121FEF761FC9BF83F2127200121FEF702
:1059E0005BFC9BF8402128200121FEF755FC9BF829
:1059F000412129200121FEF74FFCF869A04280F0E7
:105A00006F82F8697861F869002800F069824CF6C5
:105A1000CD4400264FF00109CCF6CC4412E000BF83
:105A200040F29007C2F2000778690136A0FB04013A
:105A3000C808786109EB8900F9694FEA400989458E
:105A400000F24E827869A0FB0412D10801EB8101BB
:105A5000A0EB410078707978A6EB8600702202EB0B
:105A6000400801F110005FFA88F1C0B28D1D00EB13
:105A70004000042101EB400A002000BFC1B25144A4
:105A80001BF80120471C5FFA88F00121FEF704FC97
:105A900008F101085FFA88F085423846EED844F2F2
:105AA0004020C0F20F008145BAD10136A6EB860036
:105AB000702101EB4005E8B2A046871D002000BF21
:105AC000C1B2594491F85820441CE8B20121FEF7B4
:105AD000E3FB0135E8B287422046F1D840F2900757
