:020000040800F2
:10000000E00600208901000855100008F10F0008E3
:10001000511000089102000869100008000000005B
:100020000000000000000000000000005D1000085B
:100030009502000800000000591000086110000837
:10004000A3010008A3010008A3010008A301000800
:10005000A3010008A3010008A3010008A3010008F0
:10006000A3010008A3010008A3010008A3010008E0
:10007000A3010008A3010008A3010008A3010008D0
:10008000A3010008A3010008A3010008A3010008C0
:10009000A3010008A3010008A3010008A3010008B0
:1000A000A3010008A3010008A3010008A3010008A0
:1000B000A3010008A3010008A3010008A301000890
:1000C000A3010008A3010008A3010008A301000880
:1000D000A3010008A3010008A3010008A301000870
:1000E000A3010008A3010008A301000800F002F822
:1000F00000F03AF80AA090E8000C82448344AAF188
:100100000107DA4501D100F02FF8AFF2090EBAE885
:100110000F0013F0010F18BFFB1A43F0010318473B
:10012000A4100000C4100000103A24BF78C878C1A1
:10013000FAD8520724BF30C830C144BF04680C60ED
:10014000704700000023002400250026103A28BF35
:1001500078C1FBD8520728BF30C148BF0B60704739
:100160001FB51FBD10B510BD00F058F81146FFF7C0
:10017000F7FF00F07BFF00F076F803B4FFF7F2FF23
:1001800003BC00F07DF8000009488047094800479B
:10019000FEE7FEE7FEE7FEE7FEE7FEE7FEE7FEE737
:1001A000FEE7FEE704480549054A064B7047000094
:1001B00065100008ED000008E0000020E0060020C7
:1001C000E0020020E00200204FF0000200B51346DC
:1001D00094469646203922BFA0E80C50A0E80C5067
:1001E000B1F12001BFF4F7AF090728BFA0E80C5018
:1001F00048BF0CC05DF804EB890028BF40F8042B11
:1002000008BF704748BF20F8022B11F0804F18BF7D
:1002100000F8012B7047704770477047754600F033
:100220002BF8AE4605006946534620F00700854688
:1002300018B020B5FFF7B6FFBDE820404FF000062C
:100240004FF000074FF000084FF0000BAC46ACE851
:10025000C009ACE8C009ACE8C009ACE8C00921F0AD
:1002600007018D46704710B50446AFF30080204665
:10027000BDE81040FFF781BF004870473000002004
:1002800001491820ABBEFEE72600020070470000BF
:10029000FEE7000070470000EFF3108072B600BF69
:1002A000FEE70000B0B5044600F01EF9054640F236
:1002B0002000C2F200000078611C18BF044400BF97
:1002C00000F012F9401BA042FAD3B0BD2DE9F04F67
:1002D00082B00E68002E00F0038141F20042C4F2A9
:1002E0000102042340F2004E904208BF03234FF660
:1002F000FF7CC4F2010E009300240123C1F2100C14
:100300004FF0000A4FF0000949E000BF012704F058
:100310000C030F229A402BEA020207FA03F34FEA7A
:100320009A051A4346F82520D1F804B040F20C454E
:100330005FEACB22DEF8082054BF22EA080242EA34
:100340000802C4F20105CEF808202A685FEA8B2370
:1003500054BF22EA080242EA08022A605FEA8B33AD
:10036000DEF8042054BF22EA080242EA08025FEAEB
:10037000CB33CEF80420DEF800204FF0010354BF49
:1003800022EA080242EA0802CEF800200E680AF1CA
:10039000010A36FA0AF204F1040400F0A18003FA1B
:1003A0000AF816EA080FF1D04E68664512DC122EE4
:1003B00056D8DFE806F0350B454955555555555586
:1003C000555555555555554D510000BFD1F80C9018
:1003D00046E000BF4FF6FF72C1F2210296420FDCE9
:1003E0000022C1F2110296421AD00022C1F212027A
:1003F000964215D00022C1F22102964210D02FE081
:100400000022C1F2220296420AD00022C1F2310239
:10041000964205D00022C1F23202964220D100BF9E
:100420008A684AB1012A14BFC0F81480C0F810804D
:100430004FF0080914E000BF4FF0040910E000BFBE
:10044000CA6802F108090BE04FF0000908E000BF9C
:10045000CA6802F1040903E0CA6802F10C0900BF8E
:1004600022460646BAF1080F24BF203A0436376800
:100470000F25954027EA050509FA02F22A43326062
:10048000CA79D2067FF582AF41F21803C4F20203A3
:100490001A68AEF57E7642F001021A601A6802F020
:1004A00001020192019A2AF0030256F802B040F6C6
:1004B0000002C4F20102904210D040F60042C4F2A1
:1004C000010290423FF422AF41F20002C4F2010265
:1004D000009F904208BF022719E700BF002716E7D8
:1004E00002B0BDE8F08F000040F2D800C2F2000078
:1004F0000068704740F2200040F2D801C2F20000CC
:10050000C2F2000100780A681044086070470000D9
:1005100080B542F20000C4F20200016841F010010F
:100520000160032000F072F80F2000F005F800F0E1
:1005300027F8002080BD000070B540F22006C2F20E
:10054000000640F228013278C2F200014FF47A73BB
:100550000968B3FBF2F20446B1FBF2F1084600F081
:1005600047FB0F2C4FF0010508D838B94FF0FF308A
:1005700021460022002500F01DF87460284670BD59
:1005800082B041F21800C4F20200016841F001019A
:100590000160016801F0010101910199416841F098
:1005A00080514160406800F080500090009802B097
:1005B0007047000010B54EF60C5CCEF2000CDCF873
:1005C0000030C3F3022E8EF00704042C28BF04244D
:1005D000BEF103034FF0FF3E0EFA04F438BF0023D0
:1005E000A14399400EFA03F39A43114300F00F021E
:1005F00000F160430901043A03F5644362440028B2
:1006000048BF02F10C03197010BD00004EF60C51EA
:10061000CEF200010A684FF6FF031A4060F30A2287
:1006200042F0806040F0FD70086070472DE9F043B3
:1006300081B0002800F0858042F20008C4F2020870
:100640000446D8F800000D4600F0070088420CD29E
:10065000D8F8000020F007002843C8F80000D8F8B8
:10066000000000F00700A8426BD1206841F20409A5
:100670008107C4F2020917D5410705D5D9F8001042
:1006800041F4E061C9F80010010705D5D9F8001060
:1006900041F46051C9F80010D9F80010A26821F0A7
:1006A000F0011143C9F80010C00741D1D8F800008B
:1006B00000F00700A8420CD9D8F8000020F007008D
:1006C0002843C8F80000D8F8000000F00700A8424E
:1006D00037D12068410707D5D9F80010E26821F426
:1006E000E0611143C9F80010000708D5D9F80000EF
:1006F000216920F4605040EAC100C9F80000D9F82F
:10070000002002F00C00082841F20020C0F27A001C
:1007100050D141F26213C2F38341C0F60003595C29
:10072000D2033BD440F60010C0F23D00484341E004
:10073000606802280AD001282AD159F8041C8903CC
:1007400008D4012001B0BDE8F08300BF59F8041CB3
:100750008901F6D5D9F8001021F003010843C9F842
:100760000000FFF7C1FE064641F28837D9F80000C5
:10077000616800F00C00B0EB810F97D0FFF7B4FE7A
:10078000801BB842F2D9032001B0BDE8F08300BF5E
:1007900059F8041C8907D4D5DCE700BFD9F800203C
:1007A00041F26013C2F34042C0F600039A5C484332
:1007B000B0FBF2F0D9F8001041F24812C1F3031176
:1007C000C0F60002515C40F2280220FA01F140F22A
:1007D0002400C2F200000068C2F200021160FFF7BC
:1007E000ABFE002001B0BDE8F083000040F228001D
:1007F00041F20401C2F20000C4F20201006809687B
:1008000041F25812C1F30221C0F60002515CC84007
:100810007047000040F2280041F20401C2F20000DB
:10082000C4F202010068096841F25812C1F3C22102
:10083000C0F60002515CC840704700002DE9F0414D
:1008400082B0002868D00446007841F20006C00754
:10085000C4F2020625D0706800F00C0004281BD0FA
:10086000706800F00C00082802D17068C00313D42F
:100870006068002800F06881B0F5A02F00F07C814E
:10088000B0F5803F00F07C81306820F4803030602B
:10089000306820F4802076E13068800301D56068FC
:1008A000D0B32078800718D5706810F00C0F07D0EF
:1008B000706800F00C0008286ED17068C0036BD41B
:1008C0003068800702D52069012825D13068616928
:1008D00020F0F80040EAC1003060207800071FD403
:1008E0002078400732D4E56995B1706800F00C00BB
:1008F000082840F08F80012D0ED07068216A00F426
:1009000080328A4208D1616A00F47010884203D1B3
:10091000002002B0BDE8F081012002B0BDE8F08106
:10092000A069002862D00020C4F242200121C0F852
:100930008014FFF7D9FD0546706A800700F18C80AE
:10094000FFF7D2FD401B0228F6D92AE1F06910F02A
:10095000805808D1F06940F08050F061F06900F0F3
:1009600080500090009847F20007C4F200073868F2
:10097000C00529D4386840F480703860FFF7B4FDB2
:10098000054600BF3868C0051ED4FFF7ADFD401B0B
:100990006428F7D905E100BF2069002840F2000073
:1009A000C4F2422000F0828001210160FFF79CFD2B
:1009B000054600BF306880073FF588AFFFF794FD1C
:1009C000401B0228F6D9ECE0E068002800F08080A7
:1009D000052800F09780012800F09880306A20F008
:1009E00001003062306A20F0040092E00020C4F27E
:1009F00042200021C0F88014FFF776FD054600BFB5
:100A0000706A80077FF56CAFFFF76EFD401B022810
:100A1000F6D9C6E00027C4F2422700203866FFF767
:100A200063FD022D05460BD13068800140F1BE8088
:100A3000FFF75AFD401B02284FF00300F4D968E786
:100A4000306880017FF564AFFFF74EFD401B022840
:100A50004FF00300F4D95CE740F22800C2F2000036
:100A6000006844F6D351C1F26201A0FB0101480ABB
:100A7000019000BF00BF0198411E002801913FF482
:100A80002FAF00BF0198411E002801913FF428AF0D
:100A900000BF0198411E002801913FF421AF00BF23
:100AA0000198411E00280191E4D119E7002101605D
:100AB000FFF71AFD054600BF306880077FF50DAFD0
:100AC000FFF712FD401B02284FF00300F4D920E786
:100AD000306A20F001003062306A20F00400306299
:100AE000FFF702FD054641F2883700BF306A8007F4
:100AF00020D5FFF7F9FC401BB8424FF00300F5D9B1
:100B000007E700BF306A40F004003062306A40F00E
:100B100001003062FFF7E8FC054641F2883700BF6C
:100B2000306A800706D4FFF7DFFC401BB842F7D9D4
:100B300037E000BFB8F1000F7FF4D5AEF06920F0C8
:100B40008050F061CFE600BF306820F48030306024
:100B5000306820F480203060FFF7C6FC054600BFF7
:100B6000306880037FF59DAEFFF7BEFC401B642814
:100B70004FF00300F4D9CCE6306840F480203060B8
:100B8000306840F480303060FFF7AEFC054600BFAF
:100B9000306880033FF585AEFFF7A6FC401B642854
:100BA000F6D9032002B0BDE8F08100BF206AB0F59D
:100BB000803F05D17168A26821F400311143716052
:100BC0007168626A21F47411114308437060012056
:100BD0003866FFF789FC0446306880013FF598AE1F
:100BE000FFF782FC001B02284FF00300F4D990E6C7
:100BF000411E0020B0EB116F1CBF012070474EF268
:100C00001002CEF2000251604EF62351CEF20001E6
:100C1000F0230B700721906011607047002804BF1B
:100C20000120704710B5044690F8410028B9002013
:100C300084F84000204600F063F8242084F8410046
:100C40002068D4E90212C36823F40053C360036927
:100C500023F440531A430261D4E904231143C268C8
:100C6000194341F20C639A431143C1604169A2697F
:100C700021F44071114343F60002C4F20102904294
:100C8000416103D0FFF7B2FD02E000BFFFF7C2FDF4
:100C90006268192148439100B0FBF1F048F21F51FE
:100CA000C5F2EB11A0FB01235A094FF69C73C0F665
:100CB000FF7302FB0300322303EB0010A0FB0101D2
:100CC000F02303EA5113206803EB0212C1F343112E
:100CD00011448160016921F490410161416921F071
:100CE0002A014161C16841F40051C1600020202106
:100CF000606484F8411084F84210606310BD000005
:100D000070B586B040F60004C4F201040068A4F592
:100D1000444100268842049602D006B070BD00BF50
:100D200041F21800C4F20200416802AD41F4003102
:100D30004160416801F4003101910199016841F07D
:100D4000040101600068294600F004000190019848
:100D50000420029002200390032005902046FFF714
:100D6000B5FA0820CDE90206204629460496FFF789
:100D7000ADFA06B070BD00002DE9F04381B0044625
:100D800090F84100202840F0B180884600294FF0BB
:100D9000010000F0D6801646002A00F0D280002024
:100DA000606421201D4684F84100FFF79DFBA68466
:100DB000E684A1680646B1F5805F03D1206900286A
:100DC00000F0988047464FF00008E18C2068002929
:100DD00000F0968005F101090BE000BF47B317F85A
:100DE000011B4160E18C0139E184E18C002900F0B4
:100DF000878001680906F1D4B9F1000F0AD0EDB17E
:100E0000FFF772FB801BA84218D82068016809060A
:100E1000F6D5E3E701680906E0D4016809065CBF7E
:100E200001685FEA0161D9D401680906F2D5D5E706
:100E300038F8021B00276FF35F21D2E7206850E8E3
:100E4000030F216820F4D07041E80302BAB3206890
:100E500050E8030F216820F4D07041E8030272B318
:100E6000206850E8030F216820F4D07041E80302A5
:100E70002AB3206850E8030F216820F4D07041E8BD
:100E80000302002ADAD11AE0206850E8050F216831
:100E900020F0010041E80502DAB1206850E8050FB2
:100EA000216820F0010041E8050292B1206850E875
:100EB000050F216820F0010041E805024AB12068D1
:100EC00050E8050F216820F0010041E80502002AE2
:100ED000DAD1202084F8410084F84200002084F810
:100EE0004000032001B0BDE8F08300BF022001B044
:100EF000BDE8F0830027E18C206800297FF46AAF09
:100F00000168490619D4FDB1691C0DD10168490673
:100F100013D4016849065CBF01685FEA41610CD4E3
:100F200001684906F2D508E0FFF7DEFA801BA84207
:100F30000AD8206800684006F6D5202084F84100D1
:100F4000002001B0BDE8F083206850E8030F21685D
:100F500020F4D07041E80302002A3ED0206850E817
:100F6000030F216820F4D07041E80302AAB320687F
:100F700050E8030F216820F4D07041E8030262B307
:100F8000206850E8030F216820F4D07041E8030284
:100F9000002AD9D121E000BF206850E8050F216860
:100FA00020F0010041E80502002A3FF492AF2068DA
:100FB00050E8050F216820F0010041E80502002AF1
:100FC0003FF487AF206850E8050F216820F001004A
:100FD00041E80502002A3FF47CAF206850E8050F85
:100FE000216820F0010041E80502002AD4D170E711
:100FF000FEE7000081B041F21800C4F2020001686F
:1010000041F004010160006800F0040000900098C5
:1010100001B0704780B540F2900044F20041C2F246
:101020000000C4F2000100234FF00C0C4FF41652E4
:1010300080E80E00C0E90333C0E905C3C361FFF7D0
:10104000EDFD002808BF80BDBDE88040FFF724B952
:10105000FEE70000FEE70000704700007047000058
:10106000FFF748BA70470000FEE7000092B0002585
:1010700041F28830029501950090FFF749FA08ACDB
:10108000201D2421FFF7A0F80220089001200C90D9
:1010900010200D9020460F95FFF7D0FB20B1EFF305
:1010A000108072B6FEE700BF0F20CDE9030503A84C
:1010B0000021CDE905550795FFF7B8FA20B1EFF308
:1010C000108072B6FEE700BFFFF794FFFFF7A2FFA4
:1010D00040F2000540F29004C2F2000541F272199C
:1010E000C2F20004C0F600094FF00008462705F1DF
:1010F000100600BF2046294610221423FFF73CFEAD
:101100004FF4FA70FFF7CEF802981423411C39F817
:101110001000029100900298292828BFCDF808807D
:101120006F740098A874009900EB11200A0A4630E9
:10113000EA74A877204631461022FFF71DFE4FF4CF
:10114000FA60FFF7AFF8D5E70000000000000000EC
:10115000010203040607080900000000010203045D
:10116000010202030405060708090A0B0C0D0E0F05
:101170001010E916D516C116AD16991685167116FA
:101180005D16651678168B169E16B116C416D71600
:10119000EA164916351621160D16FD1611172517D4
:1011A00039176C1680169416A816BC16D016E416BD
:1011B000F8161A163F1664168916AE16D316F816C8
:1011C0001D170000E811000800000020300000009A
:1011D000280100081812000830000020B0060000A6
:1011E00044010008000000000F7200000000000031
:1011F00000000000000072000F463F1600000000D3
:101200000000000000009B00010000001000000032
:081210000024F40000000000BE
:04000005080000ED02
:00000001FF
