:020000040800F2
:10000000D82300209962000841600008436000087E
:1000100045600008476000084960000800000000D3
:100020000000000000000000000000004B6000081D
:100030004D600008000000004F600008516000089B
:10004000B1620008B5620008B9620008BD6200082C
:10005000C1620008C5620008C9620008CD620008DC
:10006000D1620008D562000855600008D962000816
:10007000DD620008E1620008E5620008E96200084C
:10008000ED620008F16200088760000800000000CF
:10009000000000000000000000000000F562000801
:1000A000F9620008FD6200080163000805630008AA
:1000B0008D600008096300080D6300089360000864
:1000C000996000089F600008A5600008AB60000808
:1000D000B1600008B7600008BD60000800000000C3
:1000E0001163000815630008196300080000000090
:1000F0000000000000000000000000001D63000878
:10010000000000002163000825630008296300083F
:1001100000000000000000000000000000000000DF
:100120002D63000831630008356300083963000857
:100130003D63000800000000000000000000000017
:10014000000000000000000000000000C360000884
:100150004163000845630008496300084D630008D7
:100160005163000855630008000000000000000013
:10017000000000000000000000000000000000007F
:1001800000000000596300080000000000000000AB
:100190005D63000861630008F8B5040025D004F130
:1001A0003C05697821B900202870204600F0A8FE9F
:1001B0002421697020680268520852000260206899
:1001C000016841F4004101602068026822F40042A5
:1001D000026000F0A8FF01466068DFF8002190424D
:1001E00005D2DFF8FC30994205D20120F2BDDFF8DC
:1001F000F4008142F9D32068DFF8EC304668B1FBA7
:10020000F3F3B60943EA861646602668376A6068E3
:10021000904206D34FF4967043434FF47A70B3FB89
:10022000F0F35B1CBF0943EA87133362491E23685E
:10023000DE696768974206D27F0000F044F804291F
:1002400013D2042111E0A06820B907EB470700F0A2
:100250003AF805E01920474300F035F841F48041B1
:1002600008050CBF012141F40041DFF88000064081
:100270000E43DE6122681368E169206A23F0C0033F
:100280000B43034313602268DFF86400936821691D
:100290000340E0680B43034393602268D368A1697D
:1002A00060691B0A41EA03230343D36020680168A5
:1002B00041F0010101600020686020216970206325
:1002C0000021A970F2BDB1FBF7F1491CC1F30B018C
:1002D0007047026842F4006202607047A186010024
:1002E00080841E0000093D0040420F000030FFFFE7
:1002F000007CFFFF0098401E009000987047416806
:1003000041F48051416070472DE9FC41044604F1FD
:100310003C052268DFF8BC6A5168E06AAF786B7808
:100320004FF0000C102F18BF402F40F04182D2F840
:1003300018C0D2F814E05FEACE7805D4B0F52A0FE1
:1003400018BFB0F12A4F47D05FEACE7045D5880577
:1003500043D5E06AB0F52A0F08BF012104D0E06A56
:10036000B0F12A4F01D10821E162A878402809D1D3
:1003700068690028A8681ABF40F00100C0B200F008
:10038000FE0028E02069B0F5804F16D1687821285A
:10039000A8680EBF00F0FE0040F00100C0B210617E
:1003A000606B00281CBFC06B00282AD1A06B0028FE
:1003B0001CBFC06B00280FD023E0686920B900F093
:1003C000FBFA40F0F00006E06869012804D100F073
:1003D000F3FA40F0F1001061ECE25FEA0E7015D51F
:1003E000880513D5A868C0B21061606B00281CBFD7
:1003F000C06B002805D1A06B00281CBFC06B002873
:10040000EAD02068416841F4006123E15FEA8E7020
:1004100000D5880540F1A080AB78E16A276B687849
:10042000222840F091806869002808BF402B04D141
:10043000002100F0D3FA009ABCE26869002804BFEA
:100440002069B0F5404F08D100F0E5FA40F4807023
:1004500010606869401C6861ACE2608D28B900F0EA
:10046000DAFA40F4007010606BE0608D012835D13D
:10047000B14212D11146086820F4806010602168F2
:100480004868020504D50846024600F0D0FA23E089
:10049000002200924B6900930CE0082918BF202924
:1004A00003D0122F0CD101290FD000F0BFFA116038
:1004B00000F000FB89690091009800F095FA40E097
:1004C00004291CBF0229102902D000F0AFFA03E072
:1004D0001046016841F4806111602DE0628D022AAE
:1004E00015D104291CBF0229102909D020680268EF
:1004F000034622F480621A602068FFF7EAFE0CE0EF
:1005000020680268034642F480621A6005E02268AF
:100510001368104643F48063036020684268130543
:100520000AD5B14218BF012904D008291CBF1029DF
:10053000202901D1FFF7E3FE00F0BCFA89690091A0
:1005400000980021696135E2002300935169009110
:100550009269009200992DE25FEA4C7C0EF0040053
:100560005FD5D2F804805FEA085CF4D45FEA0E6ECF
:1005700048BF5FEA415C2AD5002828D16978AB786A
:10058000E76A208D002808BF212913D1082F1CBF3E
:10059000202FB74204D000F01AFA0022AA702DE0F2
:1005A00000F078FA30D10021A9702046BDE8F6416C
:1005B00000F0DABD212903D0402B08BF2229CAD17F
:1005C000608D00284AD0A878402826D0C0E10028B5
:1005D000C1D08805BFD5212B1DD1E16A68782128BB
:1005E00039D1608D08B100F0B3B908291CBF2029AA
:1005F000B14206D000F0EBF90020A870202169700C
:1006000004E000F047FACED00021A9702046BDE8F2
:10061000F64100F0AABD402F1DD12046BDE8F641AD
:10062000E5E253681E0516D45FEA4E636CD54E05AD
:100630006AD5002868D1687822280CD1608D0428FA
:100640000AD300F0DEF9608D032804D120684168E8
:1006500021F480614160ADE1E16A022951D00128B5
:1006600018BF00284DD10020DFF84818009019204D
:100670000B68B3FBF0F04FF47A76B0FBF6F606EBBE
:10068000860600962146FFF735FE20B10B681868F4
:100690008405F8D41AE0686840F02000686050686B
:1006A00020F4E06050600A6810694A6A1070486A75
:1006B000431C4B622023488D421E4A856B700020EC
:1006C000A8700846BDE8F64100F050BD18460C463B
:1006D0000168024621F48061116000F066FB00F0C1
:1006E000C5F9202200F093F96A70A878402856D105
:1006F0000021A970002020632046BDE8F64100F0EB
:1007000036BD00F05FF955E10028FCD08805FAD528
:10071000E06A618D042904D100F054F92168086968
:1007200041E1618D032910D1516821F4806151604C
:10073000042818BF022801D000F0A0F92068016940
:10074000606A0170616A4A1C31E1618D022940F0E2
:100750002981012818BF10280DD0042818BF0228AD
:1007600004D01046016841F4007106E010460168AB
:1007700041F4806101E000F059F9116000F076F970
:1007800000F045F9226800F03CF92068416821F446
:100790004071416020206870A9784029A8D00020CD
:1007A000A870122121632046BDE8F64100F0E0BCAC
:1007B000686808B9D2F818C05769B80725D5880500
:1007C00023D5686808B1D2F818C06878002100F015
:1007D0002800282813D100F0F5F85FEA4C7058BFC4
:1007E00001215FEA0C6054BFE268A2690020287012
:1007F00002B02046BDE8F04192B200F0BABC00F071
:10080000EDF80021009A2970D4E0F80674D5880527
:1008100072D56F78506820F4E0605060002100913C
:10082000206841690091206800F005F900F026F980
:1008300021684868020528D50FF2A958222F18BF51
:100840002A2F10D0606B00F0FDF8606B00F0F3FC15
:1008500001281AD0606BC0F85080606B00F0C6FCB5
:1008600098B1606B0FE0A06B00F0ECF8A06B00F0AB
:10087000E2FC012809D0A06BC0F85080A06B00F00A
:10088000B5FC10B1A06B016D8847608D98B12068F0
:1008900041694A0702D5006900F0B4F8206841694F
:1008A0004A0602D5006900F0ADF8608D18B168689D
:1008B00040F004006860686818B12046BDE8F64161
:1008C000EFE12A2F05D1206328216970204600F02E
:1008D000B5FC6878282807D1E66200F0D5F82046F4
:1008E000BDE8F64100F0ABBC206B222818BF222FD8
:1008F00060D100F0C9F84BE007F00400212B18BFCD
:10090000292B2CD13B061CD54E051AD5C8B96978C0
:10091000608D00284ED0606A03781361606A421CC3
:10092000626200F068F808BF292943D100F098F806
:1009300021202063282169702046BDE8F64100F09F
:100940007FBC002836D0890534D5608D002831D091
:10095000606A01781161606A411C616228E07B066F
:100960001BD54E0519D5C0B96978608D10B31069D3
:10097000626A1070606A431C636200F03CF808BF52
:100980002A2917D100F06CF82220206328216970F1
:100990002046BDE8F64100F051BC58B1890509D5A3
:1009A000608D38B11069616A0870606A421C6262C9
:1009B00000F02DF8BDE8F381A8680004C00D00F038
:1009C00006007047506820F480605060704750689F
:1009D00020F4E06050601121216370470091536959
:1009E000009391690091704721680A68084642F4B3
:1009F000007202607047608D421E6285608D002823
:100A000070471069616A0870606A421C6262608D9A
:100A1000411E6185704700210091536900939169DF
:100A20000091009A216808680A46704710460168DC
:100A300021F4806170470268014642F001020A60B9
:100A400000987047026853686385608D18B16868C4
:100A500040F004006860486820F400604860704717
:100A60002068416821F48061416070472068016915
:100A7000606A0170616A4A1C62627047206801689E
:100A800021F480610160704700202063202169709B
:100A9000A8707047506820F4E060506020680168DA
:100AA00041F4007101600020206320216970A87862
:100AB000402870470020009021684A6900927047E2
:100AC000F8B5054605F13D0029684E694F68427842
:100AD0000024F30505D5FB0503D56FF480730124CD
:100AE0004B61B10507D5FB0505D52B686FF4007187
:100AF00044F002045961710560D5FB055ED56B8D2C
:100B000090F800C0D5F830E06FF48061202A08BF6B
:100B1000002B48D1BCF1210F18BFBCF1290F05D023
:100B2000BCF1280F08BFBEF1210F3CD10278EB6A5F
:100B3000DFF8A0C2082B14BF202B282A17D1C5F834
:100B40002CC02A68536823F4E06353602A6851611B
:100B5000202229680B6823F480630B60002129633D
:100B6000027000234370284600F069FB26E0212A2A
:100B700016D1C5F82CC02A63202303704FF0000C57
:100B800080F801C02868426822F4E0624260286868
:100B90004161286800F026F8284600F051FB0DE07E
:100BA000286841610AE02B6844F004045961102A66
:100BB00018BF402A02D1286800F00FF9300507D588
:100BC000F90505D529686FF4006044F00804486110
:100BD00034B1286C04432C642846BDE8F24060E040
:100BE000F1BD3068016821F480610160704710B583
:100BF00000F13D0300F148021C78916889B9006852
:100C00005168012905D11368DBB203619068801C2B
:100C100005E011680904090E01619068401C9060AC
:100C200010BD9168012904D113680068DBB203612B
:100C30000AE09168022933D1222C09D101680B689E
:100C4000084643F4807303609168491C916010BDAD
:100C5000418D61B1212C0AD1416A03680A781A6179
:100C6000416A4A1C4262418D4A1E428510BD418D37
:100C7000002908BF212C13D101684A6822F4E062E0
:100C80004A60002401680A6842F400720A60002188
:100C9000016320221A705C70BDE8104000F064BA55
:100CA00010BD38B5044604F13D052878697810294F
:100CB00014BF4029222804D121680A6822F4006266
:100CC0000A6000F02801282903D100202063297040
:100CD0000BE0226851680A0505D4602803D0202063
:100CE00028700021697000202063206841680A058F
:100CF00023D5416821F400614160606B0FF2E5018A
:100D000090F83520012A09D00165606B00F06EFA79
:100D1000002825D000F056F8606B0BE0A06B016551
:100D2000A06B00F063FAD8B1206800F034F800F04E
:100D300049F8A06B016D884712E02A78602A0AD131
:100D4000202129700022226400F025F800F033F8F9
:100D500000F077FA04E000F01EF8204600F006FAF2
:100D6000206C10F00F0F01D000F01FF82878216CD4
:100D70004A070ED528280CD11648E06200212163CD
:100D80002020287000226A702046BDE8324000F022
:100D900056BA31BD000041694A0605D50069616A4D
:100DA0000870606A421C626270472068416821F4E2
:100DB000E0614160704720680168490849000160AE
:100DC00020467047206801684908490001602020DA
:100DD000287070470000FFFF3068016841F400711F
:100DE000016070477CB5002100911925816B314865
:100DF00001F13D024FF47A7613780468B4FBF5F5FF
:100E0000B5FBF6F6232046430096009838B10098CB
:100E1000401E00900C6820688505F6D403E0086C3D
:100E200040F020000864486B08B10024C463886B5C
:100E300008B10024C4630868046824F48064046072
:100E400000204885486B08B100240465886B08B110
:100E5000002404650868046864086400046010786D
:100E600060280AD1202313700024547000220A64E1
:100E70000846BDE8764000F0E4B903F02803282BCB
:100E80000ED10868036843F0010303602823086853
:100E9000046844F48064046000200863137003E075
:100EA00020201070002454700846BDE8764000F001
:100EB0005DB90000380000204F4A5048504980B5C5
:100EC00000F00CF800B117E001BD4B4A4D484E4907
:100ED00080B500F003F800B10EE001BD42600023D0
:100EE0004FF4804201608360C360026143618361AB
:100EF000C3610362FFF750B9BDE8014000F08CBA4E
:100F000038B586B0044614220021684600F086FAFF
:100F100020683B493D4C3E4D88421FD100F052F8BD
:100F20004FF4407100F056F8002005900022296926
:100F300041F4001129610021286900F40010059096
:100F400005981F2000F08EFA1F2000F0A8FA00225A
:100F50000021202000F086FA20202FE02A49884234
:100F60002ED100F02FF84FF4806100F033F81221F9
:100F7000019101220292082003210090039109228D
:100F800004926946204600F0B5FA00200590002240
:100F9000296941F4800129610021286900F4800059
:100FA00005900598212000F05DFA212000F077FAE5
:100FB00000220021222000F055FA222000F06FFAD2
:100FC00007B030BD002005901222296841F00201CF
:100FD00029607047286800F002000590059800918C
:100FE0000192012102910322042104910392694696
:100FF000204600F07FBA0000A0860100F81D002006
:10100000005400404C1E00200058004000040240E4
:10101000303802402DE9F04104000F4654D04B4EC9
:10102000306800F00700B84202D200F073F84BD1EC
:101030002068474D810712D5400703D5A96841F4C0
:10104000E051A9602078010703D5A86840F460400A
:10105000A860A968A06821F0F0010143A960217887
:10106000C80729D56068012802D129688A0305E0EC
:10107000022818BF032803D129688A0103D423E07A
:1010800029688A0720D5A968890840EA8100A860F4
:1010900000F034FB8046A868616800F00C00B0EBFB
:1010A000810F09D000F02AFBA0EB080041F2893142
:1010B0008842F0D303202BE0306800F0070087421D
:1010C00004D200F027F801D0012021E02078410768
:1010D00005D5AA68E06822F4E0520243AA602178AC
:1010E000080706D5A968206921F4604141EAC001DA
:1010F000A96000F009FBAA681649174BC2F3031256
:10110000895CC84018601548006800F02DFB00207D
:10111000BDE8F0813770316801F00701B9427047CE
:101120000D48006870470C480D4A006813680D4967
:10113000C3F3822206E00848094A00681368094997
:10114000C3F34232895CC84070470000003C024053
:1011500000380240046200083800002034000020FB
:1011600008380240A862000870477047704770470F
:1011700070477047F8B5044604F134056E6A00F014
:10118000BDFA07466878022805D080212962002030
:1011900028700120F2BD2068016821F0160101606D
:1011A00000F036F8E868002804BF6869002801D01C
:1011B00000F03AF800F032F820680168CA070CD550
:1011C00000F09CFAC01B0628F6D3202028620321D9
:1011D0006970002028700320F2BDA86A3F21814079
:1011E000B1600020012169702870F2BD90F83510BF
:1011F000022903D08022426501207047052180F832
:1012000035100068026852085200026000207047E2
:101210002068416921F080014161704720680168C0
:1012200049084900016070472068016821F0080101
:1012300001607047000090F83500704770477047B4
:10124000704770472DE9F04700F0AEFA00F083F8E0
:1012500000F0C4FA00F09CFB00F000FC00F088FCF9
:1012600000F0B0FC00F0D4FCFFF72FFE00F0DCFC37
:1012700000F0E2FBFFF720FE00F0DEFC00F072FD64
:101280004FF4FA6000F0DCFD00F0EEFD584C00F089
:101290005DF8584D584E594FDFF86481DFF864917E
:1012A000DFF864A100F04AF8012200F050F801E0F4
:1012B000002010E04FF40051544800F0FBF968782A
:1012C0006428F5DA00EB800000F5A8507C3000F0CF
:1012D000D4FD6878401C687000F038F800F02EF8F3
:1012E000012200F034F8002200F023F80123042248
:1012F00005F10C01484600F030FE0123042205F1FF
:101300001401484600F0C9FE012200F012F8012342
:10131000022205F11C01404601F0CBFA0123022212
:1013200005F12401384601F0C4FA642000F088FD7C
:10133000C0E74FF48041504600F0B8B90020287053
:1013400001230422291D304600F007BE002240215F
:10135000204600F0ABB980B592B0302106A801F06C
:10136000B7FD142101A801F0B3FD002000904FF457
:1013700080332748016841F08051016000210068F6
:1013800000F080500090009822480091026842F4DA
:10139000404202600122006800F44040009006A82C
:1013A0000099069202214FF480020C910D921921AE
:1013B000C0220E910F9202210422079310911192E4
:1013C00001F08AFD08B100F027F8022102910F20F8
:1013D0004FF4805101900022049103920592032161
:1013E00001A8FFF717FE08B100F016F813B000BD12
:1013F0000000024000000020481D0020741F002053
:10140000301F0020A01D0020000402400008024000
:10141000403802400070004072B6FEE710B5044646
:1014200010460A460146204601F0E6FE204610BD61
:101430000901020002D4284881547047274B02F06A
:101440000F021A4402F8041C7047254B19684FF626
:10145000FF020002114000F4E06008432149084304
:101460001860704770B51E4B1C68C4F3022301243A
:10147000C3F10705052D2EBF0F2504FA05F56D1ED6
:101480001E1D072E34BF0023DB1E2940994004FA9D
:1014900003F3BDE870405B1E1A401143C8E701002A
:1014A00007D4012200F01F010F4B8A40400943F886
:1014B00020207047401EB0F1807F01D3012070478B
:1014C0000A490B4A48600023F02010708B60072007
:1014D000086000207047000000E400E018ED00E024
:1014E0000CED00E00000FA0500E100E010E000E093
:1014F00023ED00E02DE9F84F0D4600267649774AA6
:101500000F23044601202F68B04000EA07088045F9
:1015100040F0C6804FEA460C032707FA0CF76FEA43
:10152000070E6F6807F00309B9F1010F1CBF07F040
:101530000307022F12D1A768D5F80C900EEA07070F
:1015400009FA0CF949EA0707A760676827EA00006B
:101550006F68C7F30017B74038436060B0002F7959
:1015600007F00307032F21D0E768D5F808900EEAAB
:10157000070709FA0CF949EA0707E7602F7907F02E
:101580000307022F12D1F70804EB870700F01C09AC
:10159000D7F820A003FA09FB2AEA0B0AD5F810B005
:1015A0000BFA09F949EA0A09C7F8209027680EEAF8
:1015B000070E2F7907F0030707FA0CF747EA0E0C1E
:1015C000C4F800C06F6817F4403F69D04FF0000EB8
:1015D000CDF800E04FEA960C176847F48047176093
:1015E00000F00C00D2F800E03D4F0EF4804ECDF834
:1015F00000E0DDF800E057F82C7003FA00FE27EA5F
:101600000E0E384FBC4208BF002713D0364FBC42E5
:1016100008BF01270ED0354FBC4208BF022709D0B2
:10162000334FBC4208BF032704D0324FBC420CBF2B
:101630000427072707FA00F040EA0E00DFF8A0E0D1
:101640004EF82C006FEA0800D1F808C06F6800EA75
:101650000C0CFF0248BF48EA0C0CC1F808C0D1F8D6
:101660000CC06F6800EA0C0CBF0248BF48EA0C0CC3
:10167000C1F80CC0D1F804C06F6800EA0C0CBF03BD
:1016800048BF48EA0C0CC1F804C0D1F800C000EA19
:101690000C0C6868C00348BF48EA0C0CC1F800C0D5
:1016A000761C0F2E7FF62EAFBDE8F18F02B909042C
:1016B00081617047426901EA0203914341EA0341B3
:1016C000816170470C4A136801460B421CBF1160D0
:1016D00001F0C5BD70470000003C014044380240A5
:1016E00008380140000002400004024000080240A7
:1016F000000C024000100240143C014001484068C8
:10170000704700BF2C00002030B5144C606800F01A
:101710000C00042802D0082802D01DE0104830BD7B
:10172000226820680023410202F03F0204D52568A8
:101730000B49C5F3881003E020680A49C0F38810FC
:10174000A1FB000101F08CFD2168C1F30141491C9E
:101750004900B0FBF1F030BD024830BD0438024012
:1017600040787D010024F40038B50D4D0D4B2A78EA
:1017700004464FF47A711868B1FBF2F2B0FBF2F054
:10178000FFF798FE50B9102C08D2002221464FF0E6
:10179000FF30FFF767FEAC60002032BD012032BD94
:1017A0002C0000203800002080B50B48016841F46F
:1017B00000710160026842F480620260016841F4D5
:1017C000807101600320FFF740FE0F20FFF7CCFF80
:1017D00001F0CAFD002002BD003C024070B586B099
:1017E000142200216846FFF719FE00214048414EAF
:1017F000414C424D0591026842F004020260002211
:10180000016801F00401059105990592036843F010
:1018100080030360016801F080010591059905923C
:10182000036843F001030360016801F001010591C1
:10183000059905924FF40051036843F002030360D9
:10184000006800F00200059005983046FFF72EFF73
:10185000012240212046FFF729FF0022342128469B
:10186000FFF724FF01224FF480412846FFF71EFFB7
:1018700000224FF400412046FFF718FF4FF40051BB
:101880000091112200210291039101926946304694
:10189000FFF730FE10204FF4041100900191002258
:1018A000029269462046FFF725FE48F2400100F00B
:1018B00027F82046FFF71EFE44F2040100F020F84E
:1018C0002846FFF717FE30210091012200210291E6
:1018D0000192039269462846FFF70CFE0022002180
:1018E0000A20FFF7BFFD0A20FFF7D9FD06B070BD43
:1018F000303802400008024000000240000402406C
:101900000091012201920021029102220392694674
:101910007047F0B40246106895681318506803EBDE
:101920005004C00748BF4D44A3422DD013F8016BAB
:1019300016F0030004BF13F8010BC01C31090F2976
:1019400007D113F8011B0F3103E013F8017B05F8F1
:10195000017B401EF9D10029E6D013F8010BC6F334
:101960008106032E08BF13F8016B00EB06204042EE
:1019700028440026B71E8F421EBF10F8017B05F8D1
:10198000017B761CF6D1CFE7F0BC02F10C0070476A
:1019900010B586B01022002102A8FFF73FFD0822F3
:1019A00000216846FFF73AFD214C4FF0804020604F
:1019B00000214FF0FF30E0606160A1602161A16112
:1019C000204601F0EDFC08B1FFF726FD4FF48050F2
:1019D000029002A9204601F0ACFD08B1FFF71CFD02
:1019E0000021009101912046694601F089FE08B16D
:1019F000FFF712FD06B010BD0068B0F1804F00D0B7
:101A0000704780B500210B480091026842F0010246
:101A100002600022006800F00100009000981C2085
:101A2000FFF720FDBDE802401C20FFF738BD000095
:101A3000E81E00204038024080B546484649016013
:101A40004FF496524FF40051C16000230C214260C4
:101A5000836000F013F800B116E001BD80B53F4887
:101A60003F4901604FF4165200230C21426083600D
:101A7000C36000F003F800B106E001BD03614161FD
:101A80008361C36100F0D8BEBDE80140FFF7C4BC6C
:101A900010B586B004461422002101A8FFF7BEFC51
:101AA00021682D4A2F48914221D10021009142699D
:101AB00042F0100242610022416901F010010091E0
:101AC00000990092C021036843F0020303600222E0
:101AD000006800F0020000900098234800F02FF802
:101AE000002200212520FFF7BDFC252023E01C4A11
:101AF000914222D100210091026942F40032026138
:101B00000022016901F400310091009900920C213A
:101B1000036843F0010303600222006800F0010043
:101B200000900098114800F00AF8002200212620B9
:101B3000FFF798FC2620FFF7B2FC06B010BD01911C
:101B4000029200210391032207210591049201A929
:101B5000FFF7D0BC301F002000100140741F002090
:101B600000440040303802400004024000000240BF
:101B700010B5104C10490022204601F0FDFD08B1BF
:101B8000FFF74AFC0D49204601F009FE08B1FFF7B6
:101B900043FC0B49204602F04BF908B1FFF73CFC2F
:101BA000204601F015FE18B1BDE81040FFF734BC27
:101BB00010BD00BF4C160020D800002048000020B7
:101BC000C400002080B50F480F49016002F071F990
:101BD00018B1BDE80140FFF71FBC01BD81B000682E
:101BE000094988420BD1002208480092016841F45B
:101BF00080510160006800F480500090009801B0AE
:101C000070470000C41F00200030024030380240FE
:101C100010B5034C0348211D02F078F9207010BD67
:101C2000CC1F00202801002080B54748474900F01C
:101C30000BF800B121E001BD80B54548454900F0F1
:101C400003F800B119E001BD01604FF48272002178
:101C5000C1600161416142603821C1614FF400728D
:101C600000218261416281624FF4004380220A2197
:101C700083600262C16200F015B9BDE80140FFF760
:101C8000CBBB10B586B004461422002101A8FFF793
:101C9000C5FB21682D4A3048914221D10021009195
:101CA000426942F4805242610022416901F480514C
:101CB000009100990092A021036843F001030360A2
:101CC0000222006800F0010000900098234800F014
:101CD00030F8002200212320FFF7C4FB232024E05A
:101CE0001C4A914223D100210091026942F48042B2
:101CF00002610022016901F4804100910099009283
:101D00004FF42041036843F002030360022200689D
:101D100000F0020000900098114800F00AF800223C
:101D200000212420FFF79EFB2420FFF7B8FB06B01C
:101D300010BD01910292002103910322052105911A
:101D4000049201A9FFF7D6BB481D002000300140D6
:101D5000A01D002000380040303802400000024042
:101D6000000402401FB5102200216846FFF756FB11
:101D70002E4C2F4820604FF480312E48A062002264
:101D80000120E06160616160A2602261227684F8D6
:101D90002020E262E26084F83020204602F0BAF8A7
:101DA00008B1FFF739FB08200121009001910022C2
:101DB00002926946204602F0FAF908B1FFF72CFBBF
:101DC0001FBD10B586B004461422002101A8FFF7FC
:101DD00025FB21681648814226D100221648009230
:101DE000416941F480714161416901F48071009160
:101DF000009900920321036843F002030360006826
:101E000000F00200009000980191029100210391DE
:101E100001A90A48FFF76EFB002200211220FFF7FC
:101E200021FB1220FFF73BFB06B010BDA01E0020D7
:101E3000002001400100000F303802400004024041
:101E400038B50446FFF75AFC14F1010F054602D0DD
:101E5000044801786418FFF751FC401BA042FAD3F4
:101E600031BD00BF2C0000200D48102101220023AD
:101E7000017042708370C3707047A0F2DF10400899
:101E8000410900F01F00064A4301C00800EB0110A1
:101E9000507011330909002013709170D070704791
:101EA0000400002038B5040001D1012032BD606A71
:101EB00030B96068B0F5827F05D00021E16102E0B1
:101EC0000020206160610020A06204F15005687864
:101ED00020B9002129702046FFF7D3FE0220687048
:101EE00000F0ACFB6068A168E26800F4827001F465
:101EF00004410843217C02F400621043227D01F07A
:101F000002010843A16902F001021043227F01F49B
:101F10000071084394F8201002F038021043A26ABE
:101F200001F080010843216802F400521043086068
:101F3000A06994F824102268000C00F0040001F05D
:101F40001001084350602068C16921F40061C1613B
:101F5000002068600121697032BD2DE9F843054613
:101F600005F15007002638780C469146984601281E
:101F700008BF022000F08F8001203870FFF7BEFB01
:101F80007978012918BF02264DD1002C18BFB9F16C
:101F9000000F7DD00321797000237B602C63A5F8AE
:101FA0003490A5F836900021A963AB87E9876B646C
:101FB0002964AB68B3F5004F09D129680B6823F099
:101FC00040030B6029680C6844F480440C60296865
:101FD0000B685C0603D40B6843F040030B60444677
:101FE000E968B1F5006F696821D1002918BFB9F11E
:101FF000010F00F0EAF9804604E0296B0A88C2600C
:1020000000F0C8F9E88E002833D0286881688A0774
:10201000F3D4FFF773FBA0EB0800A04204D314F144
:10202000010FEFD0032634E0002CEBD1FAE70029B2
:1020300018BFB9F1010F00F0BCF9804606E0296B2A
:102040000A780273286B411C00F0A6F9E88E80B173
:10205000286881688A07F2D4FFF750FBA0EB0800DC
:10206000A04203D314F1010FF0D0DBE7002CEDD137
:10207000D8E742462146284600F06EFB08B12020F2
:102080007860A86810B900F08CF9009A786800B1FF
:10209000012600F0A1F8BDE8F2832DE9F8430446DB
:1020A000002660680D469146984604F15007B0F549
:1020B000827F04BFA068002809D104267E70CDF875
:1020C00000804B462A46204600F08CF882E03878A3
:1020D000012808BF02207DD001203870FFF70EFBD9
:1020E0007978012918BF022672D1002D18BFB9F1E5
:1020F000000F6CD00421797000227A60A563A4F8E7
:102100003C90A4F83E9000212163A286E1862264DF
:102110006164A268B2F5004F09D121680A6822F013
:1021200040020A6021680B6823F480430B60216839
:102130000A68530603D40A6842F040020A60054662
:10214000E168002926D108E0007BA16B0870A06B34
:10215000421CA263E08F411EE187E08F68B32068D4
:102160008168CA07F0D4FFF7C9FA401B404504D381
:1021700018F1010FF1D003262AE0B8F1000FECD1DD
:10218000F9E7C068A16B0880A06B821CA263E08F96
:10219000411EE187E08F80B120688168CA07F0D4D2
:1021A000FFF7ACFA401B404503D318F1010FF1D003
:1021B000E1E7B8F1000FEDD1DDE72A4641462046C0
:1021C00000F0A2FA08B120207860786800B10126FA
:1021D00000F002F8BDE8F283012078700021397028
:1021E000304670472DE9FC47054605F150070C467F
:1021F000387891464FF001084FF0000A012808BFD7
:10220000022000F0C5801E4687F80080FFF776FAAE
:102210007B78012B0AD06968B1F5827F02BFA9687B
:102220000029042B02D04FF0020AACE0002C18BFAA
:10223000B9F1000F00D00EB9C246A4E07B78042BA0
:102240001CBF4FF0050C87F801C000237B60C5F868
:102250003890EE87AE872C63EE86AE862B646B6477
:1022600029680C68630603D40C6844F040040C60D1
:10227000E9680A9CB1F5006F696838D1002918BF78
:10228000012E00F0A2F88146E88E002804BFE88FF6
:10229000002868D02968886882070BD5E88E002856
:1022A00018BFB8F1000F05D0286B0288CA60D0466D
:1022B00000F070F829688868C2070CD5E88F50B123
:1022C000C868A96B08804FF00108A86B821CAA633C
:1022D000E88F411EE987FFF711FAA0EB0900A04241
:1022E000D2D314F1010FCFD04FF0030A4BE00029F5
:1022F00018BF012E00F05DF88146E88E002804BF6B
:10230000E88F00282FD02968886882070DD5E88ECD
:10231000002818BFB8F1000F07D0286B02780A73A5
:10232000D046286B411C00F037F829688868C2073E
:102330000CD5E88F50B1C868A96B08704FF0010840
:10234000A86B421CAA63E88F411EE987FFF7D6F904
:10235000A0EB0900A04203D314F1010FCDD0C3E7D5
:10236000002CCAD1C0E74A462146284600F0F4F9BD
:1023700020B120204FF0010A786004E0A86810B96D
:1023800000F00FF800980121797000203870504655
:10239000BDE8F687286B811C2963E88E411EE9861B
:1023A0007047002100912968CA68009289680091ED
:1023B000704709D1296B2B680A781A73296B4A1C5C
:1023C0002A63E98E4A1EEA86704709D1296B2B6879
:1023D0000A88DA60296B8A1C2A63E98E4A1EEA861B
:1023E000704701680A6822F040020A60016870477D
:1023F0007CB5054600F07FF84FF47A76B3FBF6F62D
:1024000064214E4301960024019A00922868416895
:1024100021F0200141602968486802060CD50FF2BE
:10242000FD306864009818B100F05EF8FAD101E060
:1024300000F055F801980090486842060CD50FF25C
:1024400075302864009818B100F04EF8FAD101E018
:1024500000F045F8019800904868810719D5A86CEC
:10246000B8B10465A86CFEF785FE08B14020686528
:102470002868416821F002014160009838B1009855
:10248000401E0090296888688107F6D501E000F0B9
:1024900026F828684168C8070FD5E86C68B104655C
:1024A000E86CFEF767FE08B14020686500F026F989
:1024B000286841684908490041600020E8870021F8
:1024C000E986686D40280EBF0124002068650091F0
:1024D000296800F017F885F85110204676BD686D20
:1024E00040F04000686570470098401E009095F8E5
:1024F000510007287047DFF8FC0202681823B2FB7E
:10250000F3F37047CA6800928B6800930023009A27
:102510000093896800910121009870477CB50446BA
:1025200022685168936803F04100012806D14806EB
:1025300004D5216C2046BDE87C400847980706D5A5
:102540000D0604D5616C2046BDE87C40084713F4B5
:10255000B07F64D0880662D55D060ED594F8510030
:1025600003284FD0606D40F00400606500250095A1
:10257000D66800969568009500989D060ED5606D0A
:1025800040F0010060650025009592680092206887
:102590000568024625F0400515600098DA0509D562
:1025A000606D40F00800606500220092206882683B
:1025B0000092009B606D90B32068426822F0E002B8
:1025C0004260012011F0030F84F8510022D02068EE
:1025D0000FF24D054168890889004160E06C28B11F
:1025E0000565E06CFEF702FE00F022F8A06CB0B1C9
:1025F0000565A06CFEF7FAFD88B1606D40F0400003
:10260000606573BD00200090D168009192680092CF
:10261000009873BD2046BDE8764001F079BE73BDD9
:10262000806B0021C1870022C28601F071BE0000CC
:1026300018B1606D40F04000606570472068016827
:1026400021F04001016070472DE9F843089C0546E0
:102650000E4690461F46FFF751F8381A2418FFF728
:102660004DF88146634801684901090D61430091B5
:1026700005E0009800B900240098401E00902868EA
:1026800081683140B1420CBF01200020404532D06A
:1026900017F1010FF3D0FFF731F8A0EB0900A042CA
:1026A00001D2002CE5D12868416821F0E0014160A9
:1026B0006868B0F5827F08D1A868B0F5004F18BFF0
:1026C000B0F5806F01D100F019F8A86AB0F5005F8D
:1026D00009D12868016821F4005101602868026866
:1026E00042F40052026005F15000012141700022C5
:1026F0000270032000E00020BDE8F2832868016832
:1027000021F04001016070471CB504460B4660682B
:10271000B0F5827F08D1A068B0F5004F18BFB0F5C2
:10272000806F05D1FFF78AFF6068B0F5827F07D11F
:10273000A0680092B0F5806F03D00022802102E0F3
:102740000092002201212046FFF77EFF10B100F029
:102750002BF816BD002016BD7CB504462548264E34
:102760000B4601681825B1FBF5F5B5FBF6F64FF4FD
:102770007A70464300966168B1F5827F09D1009274
:10278000802100222046FFF75FFF58B100F00CF8CF
:1027900076BD009830B10098401E0090216888688E
:1027A0000106F6D4002076BD606D40F02000606523
:1027B0000320704738B500210E4A00911824136891
:1027C000B3FBF4F44FF47A75B4FBF5F564214D4393
:1027D000009500F013F8FFF704FE4A6822F0E002CB
:1027E0004A600168CA6800920722009980F8512067
:1027F00031BD00003800002040420F00009939B17F
:102800000099491E0091026891688A07F6D57047C1
:10281000416D41F0400141657047000001684A6820
:1028200022F080024A6001680A6822F040020A60D1
:10283000072180F85110704738B5040001D10120FC
:1028400032BD00F019F808B900F01AF800F01DF8D0
:1028500000F025F8FFE7416100F001F832BD206883
:10286000C16841F40051C160002068602021697096
:102870002020A8700020704704F13C05687870475C
:10288000002129702046FFF703B9242068702068D2
:10289000C16821F40051C160204600F0B4BA20683C
:1028A000016921F4904101612068416921F02A0108
:1028B00070472DE9F843054605F13C060C46707853
:1028C00020281746994649D10CB1380001D1012082
:1028D00045E03078012841D001213170002070603E
:1028E00021227270FEF70AFFAF848046EF84A86849
:1028F000B0F5805F04BF286900280EBF2746204638
:1029000000270021317004460EE014F8012B4260CC
:1029100007E02868002CF8D137F8021BC1F3080142
:102920004160E88C411EE9844346E88CCDF8009074
:10293000002807D000228021284600F075F90028E1
:10294000E7D005E000224021284600F06DF908B1EB
:10295000032004E020207070002000E00220BDE889
:10296000F28345E8003000287047216801F1140225
:1029700052E8001F206800F1140321F0400143E8F1
:10298000001000287047F8B5044625682A682846D4
:102990000146C6684B6912F00F0F02F0200106F0E5
:1029A000200007D1002918BF00285DD02046BDE8CF
:1029B000F240BDE1DF0702D416F4907F54D0D50772
:1029C00005D5F60503D5256C45F0010525645507A9
:1029D00005D5DE0703D5256C45F00205256495076E
:1029E00005D5DE0703D5256C45F0040525641207DF
:1029F00006D508B9DA0703D5236C43F0080323642E
:102A0000226C002A2FD000291EBF0028204600F08B
:102A10008FF920684069216C0A0701D440061DD552
:102A2000204600F058F920684169480611D5FFF7A3
:102A30009CFFFCD1A06B60B10FF2E5210165A06B9A
:102A4000FEF7D4FB00280ED0A06B016DBDE8F4406A
:102A500008472046BDE8F24001F05BBC204601F08B
:102A600058FC00202064F1BD206B012804F13D03D7
:102A700040F08D80D00600D5F10640F1888000221C
:102A8000009229680091226850680090009920689F
:102A90004269500641D5A16B0868406880B20028A1
:102AA000E1D0A28D9042DEDAE085C869B0F5807F82
:102AB0002DD0216801F10C0050E8001F226802F1BE
:102AC0000C0521F4807145E800100028F1D100F0D8
:102AD0009DF8490800F11405490045E80010002858
:102AE000F5D100F093F800F1140521F0400145E81C
:102AF00000100028F5D1202058700021216300F03B
:102B00008BF800F0C1F8FAD1A06BFEF733FBA18D72
:102B1000E08D091A89B2204635E0A08DE18D411A79
:102B2000E08D00281CBF88B200286ED022461068B5
:102B300000F10C0454E8004F00F10C0624F49074EA
:102B400046E800400028F2D1106800F1140454E86F
:102B5000004F640800F11406640046E800400028B5
:102B6000F2D12020587000231363106800F10C0389
:102B700053E8003F00F10C0523F01003FFF7F1FECE
:102B8000F3D189B21046BDE8F44001F0C3BB100692
:102B90002BD5310629D51878212836D1A068B0F573
:102BA000805F04BF2069002809D1206A01882A4675
:102BB000C1F308015160206A811C216205E0206A8E
:102BC000411C2162226800785060E08C401EE08445
:102BD00080B2D0B92068C16821F08001C16020684E
:102BE000C16841F04001C160F1BD50060DD57106CC
:102BF0000BD52846C16821F04001C1602046202144
:102C00001970BDE8F24001F086BBF1BD206800F10B
:102C1000140151E8001F7047206800F10C0151E8D1
:102C2000001F00F10C0370472DE9F041069C05469A
:102C30000E4690461F46286801683140B1420CBFDD
:102C40000120002040451CD114F1010FF3D024B124
:102C5000FEF754FDC01B8442EDD200F01BF821F4B6
:102C6000D07100F013F8F8D100F01CF8FCD105F198
:102C70003C0020214170202282700021017003203D
:102C800000E00020BDE8F08121F0100143E80010D1
:102C900000287047286800F10C0151E8001F00F17E
:102CA0000C037047286800F1140151E8001F49081F
:102CB00000F11403490043E800100028704744E87D
:102CC000002100297047016801F10C0252E8002F31
:102CD00001F10C04704710B5FFF7F5FF22F4907274
:102CE000FFF7EDFFF8D100F00BF8016B012901D1DE
:102CF00000F074F8202180F83E100022026310BD1D
:102D0000016801F1140252E8002F520801F1140485
:102D1000520044E800210029F2D170470000000071
:102D2000806B0021C1850022C28401F0F2BA00004C
:102D30001CB590F83E1022294ED18168826AB1F507
:102D4000805F0AD1016969B903685968C1F3080154
:102D50001180826A911C81620FE0002904BF016921
:102D6000002902D10368596803E00168496801F04D
:102D70007F011170816A4A1C8262C18D491EC18522
:102D800089B239BB0168CA6822F02002CA600168B2
:102D9000CA6822F48072CA6001684A695208520007
:102DA0004A6100F02AF813D10021016300F016F8FF
:102DB00002681168CB0607D50024009412680092BF
:102DC000036859680091009A818D01F0A3FA01E02F
:102DD00001F0A2FA002016BD022016BD026802F121
:102DE0000C0151E8002F036803F10C0422F01002DB
:102DF00044E800210029F1D17047202180F83E10DD
:102E0000026B012A704770B5044622681169E068B8
:102E100021F4405101431161D3682748A168034060
:102E200020690B4361690343E0690B430343D360AB
:102E30005169A06921F44071014351611F498A42DF
:102E40001CBF1F48824202D1FEF775F901E0FEF770
:102E50006AF962682568E4691921B4F5004FA1FB9D
:102E600000016FF0630612D1D30F520000F0F8F9A1
:102E700000F028F8F60032366420B6FBF0F042008D
:102E800002F4F87202EB011200F0070010E0930F59
:102E9000920000F0E5F900F015F8360132366420B2
:102EA000B6FBF0F000F0F00202EB011200F00F00B0
:102EB0008018A86070BD0000F369FFFF001001409A
:102EC000001401406421B0FBF1F106FB01067047DC
:102ED000002201F023BA00002DE9F843040016D0C7
:102EE0002078DFF80463C10713D5B06800F00C0048
:102EF000042807D0B06800F00C0008283DD17068A5
:102F000041023AD53068810303D56068002800F09B
:102F100065812078B54F810719D5B06810F00C0F86
:102F200007D0B06800F00C0008285BD1706841023F
:102F300058D43068810703D5E068012840F04E81FD
:102F40003168206921F0F80141EAC001316021783F
:102F5000080779D56069A649002868D001220A606F
:102F6000FEF7CCFB0546706F81076DD4FEF7C6FBFC
:102F7000401B0228F7D9032033E16068B0F5803F99
:102F800004D1306840F48030306011E0B0F5A02FFB
:102F9000306806D140F480203060316841F48031DF
:102FA00005E020F480303060316821F48021316008
:102FB000606858B1FEF7A2FB054630688103A8D4CB
:102FC000FEF79CFB401B6528F7D3D4E7FEF796FB82
:102FD0000546306881039CD5FEF790FB401B6528B1
:102FE000F7D3C8E7E068A8B101213960FEF786FB96
:102FF00005463068810705D4FEF780FB401B022898
:10300000F7D9B8E73068216920F0F80040EAC1003C
:1030100030609CE73860FEF771FB05463168880731
:1030200095D5FEF76BFB401B0228F7D9A3E7086094
:10303000FEF764FB0546706F810705D5FEF75EFB62
:10304000401B0228F7D996E72078410760D5306CFD
:103050000025C1000BD4002000900125316C41F007
:1030600080513164306C00F0805000900098DFF89F
:103070008481D8F80000C10513D4D8F8000040F4CA
:103080008070C8F80000FEF739FB8146D8F80000D0
:10309000C10506D4FEF732FBA0EB09000228F5D9E2
:1030A00069E7A068012805D00528306F06D140F0F7
:1030B00004003067306F40F0010005E04008400038
:1030C0003067306F20F00400306741F28938A06823
:1030D00060B1FEF713FB8146306F810713D4FEF712
:1030E0000DFBA0EB09004045F6D344E7FEF706FBD5
:1030F0008146306F810706D5FEF700FBA0EB090083
:103100004045F6D337E71DB1306C20F08050306475
:10311000A069002864D0B16801F00C0108293AD0F8
:1031200002282AD100203866FEF7E8FA0546306802
:10313000810105D5FEF7E2FA401B0228F7D91AE70C
:10314000E069216A626A0843A16A490840EA82107C
:10315000491E40EA0140E16A40EA016070600120D6
:103160003866FEF7CBFA04463068810138D4FEF7A2
:10317000C5FA001B0228F7D9FDE600203866FEF7E5
:10318000BDFA0446306881012AD5FEF7B7FA001B64
:103190000228F7D9EFE6012820D07068E26900F430
:1031A0008001914202BF00F03F01226A914201BFBB
:1031B00047F6C0710140626AB1EB821F0ED1A26A6C
:1031C00000F4403101F580315208B1EB024F02BFEB
:1031D00000F07060E16AB0EB016F01D0012000E007
:1031E0000020BDE8F28300BF0038024000004742E3
:1031F000800E47420070004062F30F2262F31F42CC
:10320000401810F0030308D0C91A1FD3DB0748BFCA
:1032100000F8012D28BF20F8022D130030B4144609
:103220001546103928BF20E93C00FAD8490728BFC5
:1032300020E90C0048BF40F8042D890028BF20F881
:10324000022D48BF00F8012D30BC7047C91818BFC7
:1032500000F8012DCB0728BF00F8012D70477047FB
:10326000D3BBD9B1B2F5803F5BD2022A1ED98C46BE
:10327000B1FBF2F102FB11C31B0443EA1043B3FBA1
:10328000F2FC02FB1C3380B240EA0343B3FBF2F0D2
:1032900002FB103240EA0C4000237047022A05D995
:1032A0008446B0FBF2F002FB10C270474AB105D170
:1032B00000F0010249085FEA300070470022002355
:1032C000704701F045B80B00020000210020704754
:1032D000F7D3002200237047904271EB030CF2D326
:1032E00070B5B1FA81F4B3FA83F52C1BA340C4F195
:1032F000200532FA05F63343A2405FF00046E6406F
:1033000002E05B085FEA3202841A71EB030524BF16
:10331000204629467641F4D302000B0030000021FC
:1033200070BD70B5B1FA81F4B2FA82F5C4F120042F
:103330006419B4F12006DAD3B2405FF00044F440DF
:10334000002502E052085FEA3303C61A71EB020E51
:1033500024BF3046714664416D41F3D302000B0037
:103360002000290070BD000081B0002000900022E4
:103370000A48416841F480414160416801F480415C
:10338000009100990092036843F080530360006845
:1033900000F080500090009801B070474038024023
:1033A00038B5040001D1012032BD00F01AF818B977
:1033B00000F01DF9FEF720FBFFE702206870211DD9
:1033C000206800F018F90120A8720121A970E870A6
:1033D00029716871A971E871297268726970002099
:1033E00032BD04F13C056878704710B5044620688A
:1033F00001698A0715D5C1688A0712D56FF00201E5
:10340000016101222277806910F0030F204602D06B
:1034100000F09FFF03E000F09DFF00F087F8002020
:103420002077206801694A0715D5C1684A0712D577
:103430006FF00401016102222277806910F4407F5D
:10344000204602D000F085FF03E000F083FF00F08B
:103450006DF800202077206801690A0715D5C1683A
:103460000A0712D56FF00801016104222277C069B2
:1034700010F0030F204602D000F06BFF03E000F0D5
:1034800069FF00F053F80020207720680169CA0620
:1034900015D5C168CA0612D56FF010010161082266
:1034A0002277C06910F4407F204602D000F051FF1F
:1034B00003E000F04FFF00F039F80020207720688B
:1034C0000169CA0708D5C168CA0705D56FF00101AF
:1034D0000161204600F03FFF206801690A0608D517
:1034E000C1680A0605D56FF080010161204600F031
:1034F00033FF206801694A0608D5C1684A0605D528
:103500006FF040010161204600F027FF206801694B
:103510008A060AD5C1688A0607D56FF020010161C5
:103520002046BDE8104000F019BF10BD204600F055
:1035300016BF70B5064606F13C0500242878012820
:1035400001D1022070BD0120287002226A70DFF8CC
:10355000200132689368034093600868020018BF36
:10356000102830D0202818BF30282CD0402826D052
:10357000502819D060281BD0702806D0B0F5805F85
:1035800027D0B0F5005F07D022E000F02BF83068BC
:10359000816841F0770105E000F024F83068816827
:1035A00041F48041816014E000F018F850210BE0F4
:1035B000CA684968306800F07CF8602104E000F0D7
:1035C0000DF8402100E00146306800F084F800E08A
:1035D00001240120687000F00AF870BDCA684968CB
:1035E000306857E0CB684A68896830687BE0002122
:1035F000297020467047F0B504681E4B1E4D1F4EC3
:103600001F4F984218BFB0F1804F04D0B8421CBF82
:10361000B042A8420CD14A6824F070041443984286
:1036200018BFB0F1804F0ED0B84218BFB0420AD0D8
:10363000A8421CBF134A904205D0134DA8421CBF9C
:10364000124A904203D1CA6824F4407414434A6970
:1036500024F080041443046098428C68C4620A68B1
:10366000826202D109690A4A116001234361F0BDF7
:103670008800FFFF00000140000C004000080040EF
:103680000004004000400140004401400048014067
:103690003000014010B5036A046A640864000462E3
:1036A00023F00A03846924F0F00444EA02148461DC
:1036B00023E010B5036A23F0100303628369046AF0
:1036C00023F4704343EA023324F0A004836144EA04
:1036D0000114046210BD826822F07002114341F0AF
:1036E00007018160704710B5846824F47F4421434A
:1036F000114341EA0321816010BD1943016210BDED
:1037000070B500F13C031A78012A01D1022070BD86
:1037100001221A7002245C7005686E68AC680A6841
:1037200026F0700616436E6002680E48824218BF8B
:10373000B2F1804F0BD00D4882421CBF0C4DAA4203
:1037400005D0094882421CBF0A4DAA4204D14868EC
:1037500024F0800404439460012159700020187003
:1037600070BD000000000140000C0040000400405B
:10377000000800400040014010B508B9032010BD0A
:1037800000F527730024DC619C625C6301B19961E0
:10379000012119700270BDE8104000F077BE1CB521
:1037A0000022ADF8002009B9032016BD00F52E74E3
:1037B0002160E16900EB8100D0F8B822D16A11B133
:1037C00068468847A061206A401C2062002016BD20
:1037D00000F089BE80B5D0F8B832002213B11A6863
:1037E00090470246104602BD10B5D0F8B822536883
:1037F0009847002400B10324204610BD38B5044684
:1038000004F2AA25284601F013F904F525700121D8
:103810000160828B817D426011F01F0003D002287D
:103820000DD006D311E029462046BDE8344000F013
:10383000C1BE29462046BDE8344001F01EB82946E5
:103840002046BDE8344001F04DB82046BDE8344084
:1038500001F0800100F060BE38B5044610460A0051
:1038600004F5257322D1196803290ED104F5AE7130
:103870004A680D68AA420AD2AD1A0D60954238BF57
:103880002A460146204601F030F9002032BD187A60
:10389000032807D1596A086920B100221A6420461A
:1038A00009698847204601F028F9EEE7187A0328CD
:1038B000EBD15A6A90690028E7D000251D642046A4
:1038C0009269BDE83840104738B5054610460A00F1
:1038D00005F525743AD12168022931D1EA69296AAE
:1038E000914206D2521AEA610146284601F0EBF8ED
:1038F0000DE013D1A869884210D3616888420DD2C7
:1039000000220021284601F0DEF80020606000233C
:1039100000220021284600F026FE11E0207A03282C
:1039200007D1616AC86820B1002222642846C968AC
:1039300088478021284600F0EFFD284601F0E4F892
:10394000207B08B100212173002032BD207A03289A
:10395000FAD1626A50690028F6D000232364284611
:103960005269BDE83840104738B5044604F5257063
:103970000121017200220260626000210161027374
:103980000025406A00281CBF4268002A03D0204658
:10399000904700B10325402300220021204600F07B
:1039A000AAFD04F5B070012140228180026040230D
:1039B00000228021204600F09EFD0120A0844021AD
:1039C0002162284632BD01740020704700F527703F
:1039D00004220178417002700020704700F52770C2
:1039E0000178042904BF417801700020704780B538
:1039F00000F527710A78032A05D1C96900291EBF7D
:103A0000C96900298847002002BD10B500F019F8E7
:103A10000AB9032010BD1B78032B02D1126A02B130
:103A20009047002010BD10B500F00BF80AB9032034
:103A300010BD1B78032B02D1526A02B190470020BF
:103A400010BD00F527739A6B00EB8204D4F8B822FE
:103A500070470020704700F52771012210B50A70E9
:103A60000024CA692AB141685268C9B2904700B1BE
:103A70000324204610BD00207047002070477CB50D
:103A800004460D46217863880026994212D2ADF88B
:103A9000001000E00026BDF800106288914209D2B3
:103AA000694600F009F841780529F4D10646B17855
:103AB000A942EFD1304676BD0A880378D3180B802F
:103AC0000178084470470000F8B505464FF40770C8
:103AD00000F053FD040005F5307705F52F7603D18E
:103AE000B16947F8210040E04FF4077101F014F884
:103AF000B06947F82040B16957F82120326005F1DC
:103B00004C07287C40B94FF4007300F03CF80120CA
:103B100028874FF4007305E0402300F034F80120BB
:103B20002887402302220121284600F0E4FC0120DE
:103B3000A5F87801102179800823032282212846E4
:103B400000F0D9FC012004F50174388000212160C7
:103B5000B06905EB8002D2F8C412086880470022E1
:103B600022610020606122680AB90220F2BD287C2F
:103B700000280CBF4FF4007340230121284600F0B9
:103B8000F2FC0020F2BD02228121284600F0B3BCE5
:103B900038B50546812100F0B9FC05F13804002054
:103BA00020800121284600F0B1FC0020A5F8780112
:103BB0008221284600F0AAFC0020A082E08205F5C0
:103BC0002F7405F53075A16905EB8101086860B1B6
:103BD000486841688847A06955F8200000F0DAFC81
:103BE000A169002045F821002060002032BDF8B511
:103BF000054605F527730E46986B05EB80010022FC
:103C0000D1F8C0428DF80020ADF8022000270CB991
:103C10000320F2BD317811F060002DD0202847D16B
:103C2000F288707805F5317CFAB109060FD59B6BE7
:103C30005CF823C0DCF8083021469847F288082A4F
:103C400028BF07222146284600F035FF35E004F55D
:103C500000710870F088402828BF4020487028462E
:103C60004A78214600F037FF27E09B6B5CF8234041
:103C7000A3683146984720E0707830B101281CD005
:103C80000A2809D00B2810D012E0197803290FD187
:103C900002220DF1020104E01878032808D1012264
:103CA0006946284600F007FF07E01878032804D08B
:103CB0003146284600F0D1FE03273846F2BDF8B55C
:103CC000044604F53273D8681E6804EB8002D2F80B
:103CD000C0520DB90320F2BD01F00F07142010FBF4
:103CE00007F004EB000CDCF8180080B124225743E5
:103CF000F219926CB0FBF2F602FB160038B9CCF860
:103D0000180000230022204600F027FC0FE005F5F4
:103D100002700022C260DB6804EB8302D2F8C44266
:103D2000236923B10A46006805F50471984700200D
:103D3000F2BD70B50546D5F8D40205EB8002D2F885
:103D4000C0420CB9032070BD284604F5017600F08E
:103D500010FC04F50371B060D5F8D422306805EB8F
:103D60008203D3F8C442E2689047002070BD10B5CA
:103D7000D0F8D41200EB810000F53070016809B969
:103D8000032010BD4368002B1EBF01F5007420788E
:103D9000FF2804D062789B689847FF20207000209D
:103DA00010BDF8B51EE0F8B506461F4F8221384613
:103DB000FFF765FE054601213846FFF760FE044621
:103DC00081213846FFF75BFE0DB11021A9714FF438
:103DD000007104B1A18000B1818043203080384659
:103DE000F2BDF8B50746104E82213046FFF747FE78
:103DF000054601213046FFF742FE04468121304648
:103E0000FFF73DFE0DB11021A9710CB14021A18039
:103E100008B140218180432038803046F2BD0A211C
:103E20000180024870470000800000203C00002014
:103E300009B903207047D0F8D42200EB8200C0F803
:103E4000C41200207047D0F8D43200EB8300D0F8C1
:103E5000C00208B90320704700F50270016082605B
:103E600000207047D0F8D42200EB8200D0F8C002C6
:103E700008B903207047C0F804120020704780B5CD
:103E800000F010F809B9032002BDD1F80422017C2A
:103E900000290CBF4FF400734023012100F063FBA5
:103EA000002002BDD0F8D41200EB8102D2F8C0127B
:103EB000704710B5040001D1012010BD607920B910
:103EC000002121712046FDF789FE0120607100204C
:103ED00010BD000070B50E4D6B7A04460120A3B9E9
:103EE0006B7A0020E854687A05EB80067460687A83
:103EF00028440272687A421C6A72303008702F229D
:103F00003A2048708A700020C87070BD0022E1E736
:103F1000B81F002070B5044600250CB9012070BD03
:103F200004F13006306928B92046FDF74AFF002029
:103F3000706130733069C10600F192803069DFF83A
:103F4000B81320F4885040F002003061086820F473
:103F5000403008600A68606802430A60206841686F
:103F600021F48071416020684168226941EA0221A0
:103F700041602068416821F04071416021684A68D1
:103F8000A06802434A602068816821F40061816072
:103F900021688A68E06802438A602068A16ADFF8C5
:103FA0005C239142816821F0706181600CD02168AE
:103FB0008A68A06A02438A6000F05BF821688A6818
:103FC000E06A02438A6001E000F053F820688168EB
:103FD00021F0020100F049F8227E41EA42018160AD
:103FE00094F820002168002848680FD040F4006051
:103FF00048602068416821F4604141602068416860
:10400000626A521E41EA4231416002E020F40060DF
:1040100048602068C16A21F47001C1622068C16AE9
:10402000E269521E41EA0251C1622068816821F4AE
:10403000007100F01AF8327841EA422100F015F8D8
:1040400021F4806100F011F8626941EA8221816007
:10405000002070610120316960F30101316100E0ED
:10406000012500203073284670BD8160206881687A
:1040700070472068816821F040518160704770B5B9
:104080000446206805680146A8074E682CD5B1068D
:104090002AD5206CC10603D4206C40F40070206443
:1040A000206800F07AF804BF207E002815D121682E
:1040B000C86A10F4700F03D00846816848050CD414
:1040C0002168486820F020004860206C20F480704F
:1040D0002064206CC10400F064F8204600F01FFD4D
:1040E00021686FF012000860680731D531062FD5BE
:1040F000206CC10603D4206C40F400502064216879
:10410000886810F4401F1CD1886B10F4401F02D047
:104110008868420515D44868420512D4886810F0B2
:10412000405F04BF207E00280BD1486820F080004B
:104130004860206C20F480502064206CC10500F0A1
:1041400030F8204600F0ECFC21686FF00C000860AD
:10415000E80710D571060ED520680268D1070AD588
:10416000206C40F480302064204600F0DAFC2168A6
:104170006FF001000860A8060ED571010CD5606CC7
:1041800040F0020060646FF0200520680560204662
:1041900000F0C8FC21680D6070BD816811F0405FBF
:1041A000704703D4206C40F001002064704778B55C
:1041B00002460020009092F83C30012B01D10220F1
:1041C00072BD012082F83C0007240B6810680A2B9E
:1041D00012D30A3BC56803EB43039C4025EA040461
:1041E000C460C3680D688C68A5F10A0606EB460634
:1041F000B4402343C3600FE0056903EB430304FAB3
:1042000003F325EA0303036103690D688C6805EB7A
:104210004505AC40234303611F244B68072B0CD298
:104220005B1E456B00F059F84463436B4D680C8886
:104230006E1E00F04DF843631BE00D2B0CD2DB1F0C
:10424000056B00F04AF80463036B4D680C88EE1FA1
:1042500000F03EF803630CE00D3BC56A00F03DF84A
:10426000C462C36A4D680C88A5F10D0600F030F8F1
:10427000C362234B984226D10C681F48122C07D1E9
:10428000036823F400030360046844F480040460BA
:104290000B681E4CA34218BF112B14D1036823F4E2
:1042A00080030360056845F4000505600868A042C6
:1042B00009D11549134C0B68B3FBF4F40A204443AD
:1042C000009400F010F8002182F83C10002072BD2C
:1042D00006EB8606B4402343704703EB83039C4000
:1042E00025EA0404704702E00098401E0090009800
:1042F0000028F9D170470000042301400100000F9D
:104300000020014040420F00380000201200001041
:1043100070477047704770477047000000B500BF96
:10432000130096469446103928BFA0E80C50FAD8DE
:104330005FEA417C28BF0CC048BF40F8042BC90786
:1043400028BF20F8022B48BF00F8012B00BD000059
:1043500070477047704770477047704770477047A5
:1043600010B586B00446142101A8FEF7B1FD2268FD
:10437000B2F1A04F30D10020814C00900222216880
:1043800041F0010121604FF4C051206800F00100AC
:10439000009000987B480191029200210391032232
:1043A0000A210591049201A9FDF7A4F8606840F084
:1043B00080006060002100910022606940F480402C
:1043C0006061606900F48040009000984320FDF730
:1043D00049F84320FDF763F806B010BD00F2C44170
:1043E000D0F80805FFF70ABA0B4624225343C21837
:1043F000D0F80805D2F88C22FFF72EBA0B462422FB
:104400005343C218D0F80805D26CFFF75DBAD0F854
:104410000805FFF7ECBA10B50446E068022818BF9B
:10442000FCF7FAFFD4F808050121FFF7CCFAD4F81D
:104430000805BDE81040FFF797BA10B50446D4F858
:104440000805FFF7C3FA206800F56060016841F0D5
:1044500001010160206A20B14B48016841F006016A
:10446000016010BDD0F80805FFF7B8BAD0F808050C
:10447000FFF7D9BAD0F80805FFF7C7BAD0F8080592
:10448000FFF7E7BAD0F80805FFF7E5BA10B50178ED
:1044900039BB3E4CC4F80805C0F8C8424FF0A040F4
:1044A00020600421002002222061E061206260621D
:1044B000E06220636160E260A261204600F034FBAC
:1044C00008B1FCF7A9FF8021204601F010F8402236
:1044D0000021204600F0EAFF80220121204600F062
:1044E000E5FF002010BD80B5D0F8C80200F084FBC5
:1044F000BDE802404FE010B51C461346D0F8C80294
:10450000224600F0E7FEBDE8104044E080B5D0F858
:10451000C80200F00AFFEBE780B5D0F8C80200F04F
:104520004FFFE5E780B5D0F8C80200F07FFFDFE776
:10453000D0F8C82201F07F0324204343D018090695
:1045400002D590F83E00704790F87E02704780B523
:10455000D0F8C80200F0ADFECAE780B5D0F8C802B6
:1045600000F006FFC4E780B5D0F8C80200F0EDFE09
:10457000BEE7D0F8C80200F0F3BE0548704700005F
:10458000303802400000024010ED00E040110020F1
:104590002819002070470146002021B1022901D1CD
:1045A00001207047032070474178007840EA0120DD
:1045B000704700002DE9F8430F460024064638787E
:1045C00010F0600006F527750ED0202818BF40288F
:1045D00040F03D81AA6B06EB82033046D3F8B84227
:1045E000A2689047044634E17978092936D8DFE893
:1045F00011F0040122012D0117012D018C000A0088
:104600002D01F300AC00ADF800407888010A0129C3
:1046100000F07580022965D0032926D006291BD019
:10462000072904BF307C002818D1E9690A6B684665
:10463000904707214170FA88002A00F00481BDF8F4
:10464000001000296FD0914288BF1146ADF80010CC
:104650000146BDF80020DFE0307C002840F0F68005
:10466000E9694A6B68469047E5E7C0B20528F5D886
:10467000DFE800F02F261D140B03A8698269002AC9
:1046800051D0307C69469047D5E7A86942690AB99C
:1046900000F0DCB8307C69469047CCE7A869026935
:1046A0000AB900F0D3B8307C69469047C3E7A869DF
:1046B000C2680AB900F0CAB8307C69469047BAE7C8
:1046C000A86982680AB900F0C1B8307C6946904791
:1046D000B1E7A86942680AB900F0B8B8307C694609
:1046E0009047A8E7307CE9690028684604D1896AC8
:1046F0008847022242709EE7C96A8847F9E7AA699B
:10470000307C13686946984795E7B888002804BF4D
:10471000F888002862D17888802880F0978000F09F
:104720007F082878032800F0918085F802804146B0
:104730003046FFF70CFF00F09AF8B8F1000F07BF02
:10474000012129700220287083E0DFF80C9178881D
:1047500089F80000A04699F80040022C03D300F02D
:1047600089F8032475E02878022819D0032829D174
:1047700034B9022028700021716000F075F81EE045
:1047800071688C421BD000F06EF800F067F85FEAA9
:10479000000814D000F06EF8716800F064F807E0CB
:1047A0006CB100F05BF85FEA000803D000F062F83B
:1047B000022002E000F05BF8032028700AE000F01D
:1047C00056F807E000F056F899F8001000F04CF8A1
:1047D0004FF0030844463CE0F888012836D1297898
:1047E000491E012904D9891E30D10122311D13E04F
:1047F000B460012206F108010EE02878401E02286C
:1048000024D8FA88022A21D10121F160A86808B1D0
:104810000321F16006F10C01304600F04CF918E07C
:104820007888012808BFA8600DD002280ED1B8886A
:10483000000A287107E02878401E022806D87A88E6
:10484000012A06D1AC6000F012F802E0394600F00F
:1048500012F82046BDE8F283D41F00207460214680
:104860003046FEF7B7BFC9B23046FEF7BDBF30468F
:1048700000F043B939463046EFE0F8B50D4604463E
:104880002878002710F060001CBF2028402823D182
:1048900004F527763078401E02281DD8A988CAB2B0
:1048A000022A19D2C9B22046FFF7E5F8FF2811D035
:1048B00080B9F269906868B1B7632946926820466A
:1048C00090470746E88858B9380009D1204600F0DB
:1048D00014F905E0032703E02946204600F0BDF85F
:1048E0003846F2BD2DE9F8430E4605463078347956
:1048F00010F060004FF0000805F527770AD0202857
:1049000018BF402873D121462846FFF7B6F8FF2884
:104910003DD170E07078002843D0012814D00328DE
:1049200065D13978022915D0032960D1708838B94A
:10493000002C18BF802C03D0F08808B900F074F860
:10494000284600F0DAF856E03878022802D003282A
:104950000AD04CE0002C18BF802C48D000F064F83E
:10496000802100F062F846E07188002943D114F0FC
:104970007F0003D021462846FFF7D4FD284600F0EB
:10498000BCF821462846FFF778F8FF2833D090BBC3
:10499000B863F9698A6872B3314628469047804601
:1049A00029E0142104F07F003B7848432A18022BA9
:1049B00002F5AA7904F0800002D0032B0FD016E094
:1049C000002C18BF802C12D108B102F11409C9F8CB
:1049D000008002224946284600F06DF80BE004F002
:1049E0000F0311FB03F1294440B1888C80B9314693
:1049F000284600F032F84046BDE8F283B1F8640181
:104A00000028F4D0002C18BF802C04D1002008E02E
:104A100002F11409F6E721462846FFF789FD00B1A7
:104A20000120C9F80000D4E721462846FFF774BDED
:104A300038B50D46044628782070A81C6978617046
:104A40002D1DFFF7B1FD60802846FFF7ADFDA0806A
:104A5000A81CFFF7A9FDE08031BD10B504468021F8
:104A6000FFF75AFD2046BDE810400021FFF754BD76
:104A700000280B4600D1704770B50021044600E0C5
:104A8000491C14F8015B002DFAD10906C90D891CD7
:104A900011801178197003225A70022207E010F871
:104AA000011BD4B2521C1955D6B2521C9D55017827
:104AB0000029F4D170BD80B513460222C0F89422BB
:104AC0008361C36101E080B513460A460021FFF708
:104AD00044FD002002BD80B513460322C0F8942295
:104AE00000F5AC721360536001E080B513460A46CE
:104AF0000021FFF738FD002002BD80B50421C0F879
:104B0000941200230022E1E780B50521C0F8941239
:104B100000230022ECE700000022FEF771BB704783
:104B2000704770477047000070B504008AB04BD0E2
:104B3000266804F2BC45687820B900212970204617
:104B4000FFF70EFC03206870F16BC8055CBF002105
:104B50002161206800F077FD83B000F048F80EBCBA
:104B6000206800F0C9FC00282CD12068002100F04A
:104B700070FD0021242000260AE000FB01F22244FF
:104B80003C320123537011701181002300F028F88A
:104B900062689142F1D3002109E000FB01F2224456
:104BA00002F51F7200231170537000F019F862684B
:104BB0009142F2D383B000F01AF80EBC206800F0E6
:104BC00074FD18B102206870012007E084F83800F5
:104BD00001216970206801F0CAF800200AB070BD98
:104BE000491C1671D36016619361C9B27047211DCB
:104BF0006846342201F096B910B500F045FB01D1AA
:104C0000022010BD00F047FB00F019FD206835E3DD
:104C10002DE9F84F054686B028680290019001F012
:104C2000E5F8002840F0208300F021FB002800F088
:104C30001B83019800F50060039005F2F44281683F
:104C4000C1F30D20906000F012FB800704D52868A6
:104C5000416901F00201416100F009FBC00633D552
:104C60002868816921F01001816105F51F710298A2
:104C7000046A04F00F02242042438E18C4F3434018
:104C800002280FD147F6F070044218D0316902981B
:104C9000C4F30A1201F000F83069C4F30A110844A1
:104CA000306107E006280AD10298082205F2C441C3
:104CB00000F0F2FF316AC4F30A104118316228682B
:104CC000816941F01001816100F0D1FA000340F1E7
:104CD000C5802868DFF89CB501F05CF800242E46FA
:104CE00005004FF400495EE0002C04BFD6F89402A2
:104CF000002809D106F2C4420021184601F086F8C6
:104D000002E008B120208860E1B23046FFF76CFB7A
:104D100038071ED50821C8F808103068D0F840A020
:104D200000EB441000F53060DA45816803D30904D4
:104D300048BFC0F808903046FFF750FBDA4508D36B
:104D40003069012805D1306806F2C442012101F022
:104D50005DF8F80644BF1021C8F80810B80715D54B
:104D600002994869010604D50398416841F48061BD
:104D700041600098C178012905D10022C270E1B2DA
:104D80003046FFF773FB0220C8F80800B80644BF9E
:104D90002021C8F80810B80444BF4FF40051C8F8E7
:104DA0000810641C6D0858D0E807FAD53068E1B2E5
:104DB00000F0FEFF0746019800EB441000F5306854
:104DC000242106F51F7061430144F80700919FD527
:104DD0000121C8F808103368D3F840C003EB441130
:104DE00001F530618A68D6F810E0BEF1010F02F0DB
:104DF000200027D1130704D5DC4589D3120429D418
:104E000086E710B12020886082E712F0280FFBD1DE
:104E1000DC4501D312041DD4009800F11002D068C3
:104E20000969C1F31201411A002C116109D190687E
:104E300020B9306806F2C44201215FE710680844D7
:104E4000106061E7DFF830E4F4457FF44DAF120401
:104E50007FF557AFC1F808905AE7354600F007FADA
:104E6000400340F1B380286800F09BFF04900024C9
:104E700036E0D6F80CB0411A8B4588BF8B460BF153
:104E800003004FEA900A2869C0B200901FFA8BF322
:104E90007968E2B2484600F0EDFE786879695844D6
:104EA0008B447860C7F814B009EB441000F510602B
:104EB000816989B2514505D3F8687969814201D287
:104EC0000028D6D17869F968884205D309F50066CB
:104ED000716B059801407163641C0498400804904C
:104EE0000498002872D0C107F6D52868E1B200F016
:104EF0006AFF012106462420604305EB0008019863
:104F000000EB441000F5106904F00F008140C94324
:104F1000059108F14807F10720D50398416B0598E2
:104F2000039A014051630120C9F808002969012949
:104F300010D1D8F84C0039680144C8F84C10002C46
:104F400004BF686D002805D1286805F2C44201211C
:104F500000F05CFFE1B22846FFF750FA300744BF8B
:104F60000821C9F80810F00644BF1021C9F808103C
:104F7000700644BF4021C9F80810B00711D5029847
:104F8000214600F03EFC08F13C00C178012905D122
:104F90000022C270E1B22846FFF76CFA0220C9F87D
:104FA0000800300698D57869F968D5F800908142F4
:104FB00008F13C0690D3D6F80CA0081A824588BFA9
:104FC00082460AF103004FEA900A6DE72868019EC5
:104FD00000F0DBFE002806F5006605F2F44414D567
:104FE00071684908490071602078012805D10021C5
:104FF0002170284600F0A2FF02E02846FFF732FAAF
:105000002868416901F00041416100F030F9000574
:105010000AD5B168C80744BF2846FFF70EFA2868CA
:10502000416901F400614161039E00F020F9C00470
:1050300054D571684908490071601021286800F052
:10504000E0FB019800214FF67F3218E000EB41139E
:1050500003F5106703F53063BA60491CD7F800C048
:105060002CF4001CC7F800C09A601F6827F40017D2
:105070001F60D3F800C04CF0006CC3F800C06B6830
:105080009942E3D30190F06940F00110F061286B80
:1050900050B1D6F8840040F00B00C6F88400706C64
:1050A00040F00B00706409E0706940F4005040F07B
:1050B0002B007061306940F00B00306105F2C44292
:1050C000306820F4FE60306029692868C9B200F0B9
:1050D0009DFE2868416901F48051416100F0C7F8E4
:1050E000800416D5286800F085FE286800F0D1FB02
:1050F000E860FCF715F80146EA682868D2B200F0CB
:1051000037FA2846FFF787F92868416901F400510A
:10511000416100F0ACF8000707D52846FFF777F9A2
:105120002868416901F00801416105F27F2700F01C
:105130009EF8000617D50299886920F080008861E2
:105140004FF001080CE0242000FB08F0395C012935
:1051500004D15FFA88F1284600F09AF908F10108B5
:1051600068688045EFD300F082F8C00225D5019F22
:105170004FF001094FF0240816E007EB491000F545
:10518000106008FB09F1294400683F314A78012A80
:1051900008D1002806D50A7049F08001C9B2284616
:1051A00000F076F909F1010968688145E5D30197B6
:1051B0002868416901F48011416100F058F88002CB
:1051C00037D5029801990123242200E05B1C6F6807
:1051D000BB4229D201EB431707F5306C02FB03FEFB
:1051E000DCF80070AE440EF27F2C9CF80180B8F120
:1051F000010FEBD1002FE9D594F808E007F48037D0
:105200000EF0010E7745E1D101278CF80070D0F83F
:1052100018C04CF0800CC0F818C047693F06D5D4C0
:10522000706840F4007070602868416901F40011F2
:10523000416100F01CF8400007D52846FFF71EF931
:105240002868416901F08041416100F010F8400791
:105250000AD529684C68600744BF2846FFF712F951
:10526000286841680C43446007B0BDE8F08F2868A7
:1052700000F08BBD0B30544F0A31544F00F06BFDE2
:10528000002084F8BC0410BD044694F8BC242068B7
:10529000012A01467047A36A0122012B84F8BC242D
:1052A00006D1A269012A03D08A6B42F480328A6354
:1052B000704710B5044694F8BC04012801D10220BF
:1052C00010BD012084F8BC0484F83810206800F078
:1052D00034FDD5E738B5054601F00F0424204443DA
:1052E00028190C0647BF00F13C04012000F51F748B
:1052F0000020607001F00F012170E260237160787E
:1053000008B121782181022B04BF0020607195F83B
:10531000BC04012801D1022032BD012085F8BC0463
:105320002146286800F0C3FA7CE010B5044601F07D
:105330000F0200F09FF800F090F801D1022010BD9C
:1053400000F092F800F0EAFA9AE738B500F026F893
:1053500003F51F73002500F028F808BF5A6110E01C
:1053600001F00F01242251430844D0F89C027047F9
:1053700038B500F013F83C33012500F016F808BFEB
:105380005A61026900680029D2B2194602D100F0C0
:10539000B5FB01E000F003FB002032BD1C4601F02C
:1053A0000F0524235D43431970479C6101F00F01F1
:1053B00000241C621A615D7019700469012C704729
:1053C00038B505460C46696804F00F00814201D2E9
:1053D000012032BD2421220605D54843284400F18E
:1053E0003C01012005E011FB04F1681800F51F7174
:1053F0000020487001228A7004F00F040C7095F8A8
:10540000BC04012801D1022032BD85F8BC242868E3
:1054100000F062FC34B92969286805F2C442C9B2B7
:1054200000F0F4FC002085F8BC0432BD10B5044641
:1054300001F00F026068904201D2012010BD00F01F
:1054400019F80023837000F008F801D1022010BD84
:1054500000F00AF800F058FC12E701F00F010170AB
:1054600094F8BC1401297047012284F8BC24014639
:105470002068704724204243A0180A0603D53C3018
:1054800001234370704700F51F700022427070477F
:1054900001F00F0324225343C21809064CBF02F146
:1054A0003C0102F51F71006800F094BB70B5006804
:1054B000436A0C0003D143EA0242826215E0846A27
:1054C00003EB1443002406E000EB8505641CD5F8CB
:1054D000046103EB1643E5B24E1EB542F4D300EB74
:1054E000810043EA0242C0F80021002070BD00683C
:1054F00041620020704700000EB418B504460898B9
:10550000012817D1A06B20F48030A063E168DFF898
:1055100088090140E160E16821F44011E1600F98E1
:10552000012803D1E06840F48010E060204600F0DC
:105530008FFC0FE0E06840F04000E060204600F0A3
:1055400087FC0C990029A16B0CBF41F4803121F438
:105550008031A1630699012907D1A16841F00601B4
:10556000A160A16841F02001A16012BC5DF810FBB0
:1055700010B5022A58D1DFF82429DFF8243952184F
:105580009A4238BF4FF4705150D3DFF81829DFF832
:10559000183952189A4238BF4FF4605146D3DFF899
:1055A0000C29DFF80C3952189A4238BF4FF4505189
:1055B0003CD3DFF80029DFF8003952189A4238BF8F
:1055C0004FF4405132D3DFF8F428DFF8F4385218A2
:1055D0009A4238BF4FF4305128D3DFF8E828DFF87B
:1055E000E83852189A4238BF4FF420511ED3DFF8E2
:1055F000DC28DFF8DC3852189A4215D3DFF8D4489B
:10560000DFF8D4286418944238BF4FF400510DD30A
:10561000DFF8C828DFF8C838511899422CBF4FF47A
:10562000C0514FF4E05101E04FF41051C26822F430
:105630007052C260C2681143C160002010BD816811
:1056400041F0010102E081684908490081600020C1
:10565000704738B504460025E06820F0C0400129B5
:10566000E0600FD1E06840F00050E0600120FCF7FE
:10567000E7FB60696D1CC10701D4322DF6D3322DD2
:1056800011D10EE069B9E06840F08040E06001208F
:10569000FCF7D6FB60696D1CC107F0D5322DF6D33F
:1056A000EDE7012032BD002032BD0EB42DE9F043FC
:1056B000064604464FF000080021002004EB81025A
:1056C000491C0F29C2F80401F8D3119D06F50067A3
:1056D00055B9786840F002007860A06B40F4001083
:1056E000A06300F006FC06E0A06B20F40010A063AD
:1056F000A06B40F40020A06306F560610020086004
:105700003A683A600C98012805D1099A002A14BF1A
:105710000121002100E00321204600F0B5F810210E
:10572000204600F06EF808B14FF00108204600F066
:105730008AF808B14FF00108002038610021796132
:10574000F8614FF67F334FF0904C4FF0006E3246C9
:10575000814605E000260E60C1F810908B60401C69
:10576000079988420FD202EB401101F510610E68D3
:10577000002EEFD5002806BF02F51066C6F800E03F
:10578000C1F800C0E8E7002005E000260E60C1F87F
:1057900010908B60401C079988420FD202EB401199
:1057A00001F530610E68002EEFD5002806BF02F526
:1057B0003066C6F800E0C1F800C0E8E7386920F4B8
:1057C000807038610021A1616FF0804060610A98AB
:1057D00000F088FBDFF82C070143A1610D9818B198
:1057E000A06940F00800A061012D05D1A06940F03A
:1057F000804040F00400A0614046BDE8F0035DF841
:1058000010FB18B500220092DFF8FC26009B5B1C01
:105810000093009B934212D20469002CF6D5002419
:105820008901009441F0200101610099491C009117
:105830000099914203D203699906F6D401E003204E
:1058400012BD002012BD81B000210091DFF8B81612
:10585000009A521C0092009A8A4210D20369002BCF
:10586000F6D50023009310220261009A521C009288
:10587000009A8A4203D20369DA06F6D401E00320D3
:1058800000E0002001B0704700F50060026811439D
:105890005EE200F50060806810F0060006D0022885
:1058A00018BF062801D1022070470F20704770B53D
:1058B0000C784E782546012304F00F0400EB4512C6
:1058C00003FA04F4012E00F50060DFF840360DD134
:1058D000C669A4B2344302F51062C46110680404BE
:1058E00011D400F012F840EA85500AE0C56945EA93
:1058F000044502F53062C5611068040403D400F069
:1059000004F803431360002070BD1068CC68097967
:10591000C4F30A04204340EA8140704730B500F0E8
:1059200035F80FD100F5106000F01EF8ADB2AC43B1
:1059300000F049F99BB224EA0303D3610268DFF85F
:10594000D0150DE000F5306000F00EF824EA0544B3
:1059500000F039F924EA0344D4610268DFF8B41591
:105960000A400260002030BD0468002C07D504689E
:1059700044F000640460056845F080450560D46B20
:105980000D7805F00F0503FA05F570470B784C7894
:1059900000F5006200EB43100123012C7047F8B5BD
:1059A0000B78DFF87465DFF8747500EB43154B78FE
:1059B000012B00F5006460D18B6905F51065002BA3
:1059C0002B6909D11F402F612E6946F400262E61F4
:1059D0002B69DB0CDB0422E0DB0CDB042B612B6985
:1059E0001F402F61CB682F69D1F818C09C44ACF1DF
:1059F000010CBCFBF3F306EAC3463E432E612B6960
:105A00008E69C6F3120633432B610B79012B07D144
:105A10002B6923F0C0432B612B6943F000532B61AA
:105A2000012A03D14869002853D051E02B6843F084
:105A300004432B600E79012E0BD0886900285BD0BF
:105A4000606B0978012201F00F018A401043606306
:105A500052E0A368DC0504D42B6843F000532B60AC
:105A600003E02C6844F080542C6000920A788B6923
:105A700009699BB200F0FEF83EE005F53065286943
:105A8000C00CC0042861286907402F61CB68886971
:105A900040B92869C3F3120303432B61286940F41A
:105AA000002010E01818401EB0FBF3F080B2434312
:105AB000CB6106EAC0462B691E432E612869CB697B
:105AC000C3F312031843012A286102D1086900B107
:105AD0006861087901280BD1A068C10504D4286841
